:020000040800F2
:1080000070210020DD820008E7CD00088DC6000841
:10801000E5CD0008B5A9000831DA0008000000002D
:108020000000000000000000000000008DD50008E6
:10803000B7A9000800000000EDCD00088FD50008AA
:10804000F7820008F7820008F7820008F78200082C
:10805000F7820008F7820008F7820008F78200081C
:10806000F7820008F7820008F7820008F78200080C
:10807000F7820008F7820008F7820008F7820008FC
:10808000F7820008F7820008F7820008F7820008EC
:10809000F7820008F7820008F7820008CFA90008DD
:1080A000F7820008F7820008F7820008F7820008CC
:1080B0004DD6000859D60008F7820008F78200085C
:1080C000F7820008F7820008F7820008F7820008AC
:1080D000F7820008E1D90008F7820008F78200085B
:1080E000B9A90008F7820008F7820008F7820008A3
:1080F000F7820008F7820008F7820008F78200087C
:10810000F7820008F782000865D60008F7820008A9
:10811000F7820008F7820008F7820008F78200085B
:10812000F7820008F7820008F7820008F78200084B
:10813000F7820008F7820008F7820008F78200083B
:10814000F7820008F7820008F7820008F78200082B
:10815000F7820008F7820008F782000825DA000895
:10816000F7820008F7820008F7820008F78200080B
:10817000F7820008F7820008F7820008000000007C
:10818000F7820008F782000800F002F800F096F885
:108190000AA090E8000C82448344AAF10107DA4562
:1081A00001D100F08BF8AFF2090EBAE80F0013F01E
:1081B000010F18BFFB1A43F001031847887800002D
:1081C000A8780000103A24BF78C878C1FAD85207BE
:1081D00024BF30C830C144BF04680C607047000041
:1081E0000023002400250026103A28BF78C1FBD8C0
:1081F000520728BF30C148BF0B6070476E2900F09E
:108200007386702900F0D387662907F08C8365296F
:1082100007F08983672907F08683612907F0858342
:1082200003681B0A28BF41F08001692900F09E8184
:10823000642900F09B81752900F098816F2900F076
:108240006087782900F09F87E92900F0FB86E42900
:1082500000F0F886F52900F0F586EF2900F05D873B
:10826000F82900F09E870368DB0928BF41F08001F0
:10827000632900F07C86732900F08186E32901F0F0
:108280009184F32901F09684002070471FB507F010
:1082900045FB9DE8030000F05FFD01F07FF804005E
:1082A0000020002107F00EFB401C60600020002130
:1082B00007F01EFBE0601FBD10B510BD01F07EFE93
:1082C0001146FFF7E3FF06F0EDFF01F04FFF03B4A7
:1082D000FFF7F2FF03BC01F07FFF00000948804771
:1082E00009480047FEE7FEE7FEE7FEE7FEE7FEE798
:1082F000FEE7FEE7FEE7FEE704480549054A064BB0
:108300007047000031D6000889810008700D0020F8
:1083100070210020701100207011002070B50646F9
:1083200000F0FAFC056806F10B0020F00704B442E7
:108330009CBF002070BD2B466A68BAB11068A0428D
:1083400010D304F1080188423CBF5068586007D33D
:108350005168101941601168091B01605860146070
:10836000101D70BD13465268002AE7D121462846E9
:1083700000F0DEFC0028DED170BD70B50446051F9C
:1083800000F0CAFC0068002C14BF446870BD002CCB
:1083900018BFAC423CBF20466468F8D301680A1895
:1083A000AA4218BF456003D12A68054611440160FE
:1083B00028684119A1421CBF6C6070BD616869608A
:1083C00021680844286070BD53EA020C00F06980FF
:1083D0002DE9F04B4FF00006002B1FBFB3FA83F5D9
:1083E00003FA05F424FA05F65E4012BF1643B2FA0A
:1083F00082F502FA05F4C5F120051EBF22FA05FC3C
:1084000044EA0C04203556EA044C4FEA144418BFE1
:10841000641C4FF000084FF00009904271EB030C10
:1084200039D3002919BFB1FA81F701FA07F6B0FA7A
:1084300080F700FA07F6C7F120071EBF20FA07FCF5
:1084400046EA0C062037B6FBF4FCA7EB0507103F05
:1084500007F01F0BCBF120060CFA0BFB2CFA06F6EB
:1084600044BFB3460026202FA4BF5E464FF0000B4A
:108470005BEA060C08BF4FF0010B19EB0B09ABFBD5
:10848000027C48EB0608C01B06FB02CC0BFB03CCAE
:1084900071EB0C01C1E70B46024641464846BDE878
:1084A000F08B13B54FF000004FF00001AFF30080E8
:1084B000BDE81C40704700007CB51D4616460C0008
:1084C000009001D02044401E074B7B442A46694659
:1084D0000190304600F021FD05461CB100206946A0
:1084E00000F02EFD28467CBD7D0A00000FB41CB5AF
:1084F000084B06AA7B4469460090059800F00DFDE4
:1085000004460020694600F01BFD20461CBC5DF8B7
:1085100014FB0000490A000070B50C460546012A0C
:1085200005D02878800600D5EA69002302E00123FF
:1085300005E05B1C934202D2E05C0028F9D1A869F7
:10854000E618C01AA861286A18442862284600F074
:1085500039FC04E0D5E9012114F8010B9047B4423D
:10856000F8D3284600F044FC70BD00002DE9F0412E
:108570000646002410687529314616A510D000F073
:1085800048FC002802DA404213A507E031688A0758
:1085900001D512A502E0490704D511A5012401E087
:1085A00000F040FC00210A2206F1240709E0B0FB9C
:1085B000F2FCB0FBF2F302FB1C003030785418469A
:1085C000491C0028F3D123462A463046BDE8F04135
:1085D00000F031BC000000002D0000002B00000066
:1085E000200000002DE9F05F894604464FF0000AA4
:1085F000DFF874B1FB44C0F820A02046E16888474A
:10860000002874D0252806D0D4E901219047206A9B
:10861000401C2062F1E700265F462046E16888475B
:108620002028054607DB312D05D2781910F8200CDB
:1086300008B10643F1E7B00701D526F00406C4F8F7
:108640001CA00027C4F818A02A2D09D0284605F040
:1086500018FA38B304EB8708303DC8F8185019E011
:1086600059F8041B204604EB87029161E1688847B2
:10867000012F054618D1E069002820DA26F02006EF
:108680001DE0D8F8180000EB800005EB4000303802
:10869000C8F818002046E1688847054605F0F1F95A
:1086A0000028EED1012F0AD02E2D08D12046E168F6
:1086B00088477F1C0546022F46F02006C4DBA069D0
:1086C000002803DA404246F00106A061F00701D01D
:1086D00026F010066C2D0BD0682D09D04C2D39D00A
:1086E0006A2D35D0742D35D07A2D33D016E038E090
:1086F000E1682F4620468847B842054609D16C2FCD
:1087000026D04FF48060E16806432046884705463E
:1087100004E06C2F1AD04FF4807006430DB3A5F11E
:108720004100192802D8203546F400664A462946F9
:10873000204626604E46FFF761FD80B101280BD030
:10874000F61D26F0070000F1080956E74020E4E78F
:108750008020D8E70020D6E706F104094DE7284637
:1087600052E7206ABDE8F09F4E7300000FB400B5D9
:108770008DB010A9099000910B904FF0FF300A9036
:1087800000200C90064878440690064878446A46D3
:1087900007900F9909A800F029FD0DB05DF814FBB2
:1087A000830A00009B0A00002DE9FF5F1D464FF081
:1087B000FF3B91464FF000085F46D5E90146A969A5
:1087C00001987F1C8847296A824688470028F6D18D
:1087D000BAF1FF3F0CD0002E24F4C06419DD60060E
:1087E00014D5BAF12B0F09D0BAF12D0F0ED103E039
:1087F000584604B0BDE8F09F44F48064A96901982C
:108800007F1C8847761E8246002E02DDBAF1300FAB
:1088100003D0B9F1000F26D032E0A969761E019885
:108820007F1C44F400748847002E824605DDBAF1AF
:10883000780F06D0BAF1580F03D0B9F1000F10D05D
:108840001EE0B9F1000F02D0B9F1100F18D1A969DB
:10885000761E01987F1C24F40074884782461020FD
:1088600002E0082000E00A20814609E0A96908FB2F
:108870000908761E01987F1C44F4007488478246DC
:10888000002E05DD4946504600F09CFC0028EDDA3C
:10889000E96901988847A00502D46FF00100A8E7B4
:1088A000E00725D1600613D5600502D5C8F10000A8
:1088B00000E0404629680A1D2A600968220501D5A2
:1088C000087015E0220701D5088011E008600FE06C
:1088D0002868011D29600068210502D580F8008004
:1088E00006E0210702D5A0F8008001E0C0F8008072
:1088F00038467EE72DE9FF5F4FF0000899461446A1
:1089000046469169D2E901A7DDF838B00198884759
:10891000054659EA0B0005D009E0A1690198761CCB
:1089200088470546216A284688470028F5D1681CF3
:1089300003D05FEACA7005D015E04FF0FF3004B0F5
:10894000BDE8F09F2068011D2160D0F800800AE09A
:108950005FEACA7001D108F8015BA169761C019831
:108960007F1E88470546002F1ADD681C18D0B9F114
:10897000000F0DD0E81705EBD060421120F01F006A
:1089800059F822102A1A012090400142E0D107E054
:10899000BBF1000FDCD12846216A88470028D7D0D8
:1089A000E16901988847BBF1000F07D1002E05DD72
:1089B0005FEACA7002D1002188F80010A068B842AE
:1089C00003DDBBF1000F03D017B16FF00100B6E774
:1089D0003046B4E72DE9F04791460F4680460446FD
:1089E000002614F8015B2DB100F08EF90068405D9F
:1089F000C007F6D12B2D02D02D2D18D0641E4A466B
:108A00003946204600F022FC27B13968A14201D145
:108A1000C7F800804FF0020471050BD540420028D2
:108A200003DD00F07DF90460A007BDE8F08746F49F
:108A30008066E4E70028F8DA00F072F904606FF06D
:108A40000040F2E7014A00F051BC00003000002075
:108A5000401ECAB210F8011F8A4202D00029F9D183
:108A60000020704730B505460B462A4613F8014BE7
:108A700012F8010B08B1A042F8D01CB1002802D0B6
:108A80006D1CF1E7284630BD40EA0103024630B5CF
:108A90009B0710D14FF0013400E008C208C91D1B2C
:108AA0009D4315EAC41FF8D013F0FF0102F8011B23
:108AB0000DD01B0AF8E711F8013B002B02F8013B2F
:108AC00005D011F8013B002B02F8013BF3D130BD7A
:108AD00010B5431C02E010F8011B71B18107FAD1F7
:108AE0004FF0013202C88C1A8C4314EAC211F9D03B
:108AF000C01A0A0603D0C01E10BDC01A10BD0A0459
:108B000001D0801E10BD0902FCD0401E10BD032AFA
:108B100040F2308010F0030C00F0158011F8013B9A
:108B2000BCF1020F624498BF11F801CB00F8013B81
:108B300038BF11F8013BA2F1040298BF00F801CB45
:108B400038BF00F8013B11F0030300F0F183083A4D
:108B5000C0F0088051F8043B083A51F804CBA0E873
:108B60000810F5E7121D5CBF51F8043B40F8043BC8
:108B7000AFF30080D20724BF11F8013B11F801CBFD
:108B800048BF11F8012B24BF00F8013B00F801CBCE
:108B900048BF00F8012B70474FF000020429C0F0D5
:108BA000128010F0030C00F01B80CCF1040CBCF11F
:108BB000020F18BF00F8012BA8BF20F8022BA1EB71
:108BC0000C0100F00DB85FEAC17C24BF00F8012B56
:108BD00000F8012B48BF00F8012B70474FF000024E
:108BE00000B5134694469646203922BFA0E80C50A3
:108BF000A0E80C50B1F12001BFF4F7AF090728BF7E
:108C0000A0E80C5048BF0CC05DF804EB890028BFF9
:108C100040F8042B08BF704748BF20F8022B11F022
:108C2000804F18BF00F8012B704710B5044610F0B4
:108C3000030F08BF11F0030F40F015804FF0013E05
:108C4000121FC0F20E8051F8043BA3EB0E0C2CEA6D
:108C5000030C1CEACE1C08BF40F8043BF0D0A1F185
:108C6000040102F10402521E08DB11F8013B002B43
:108C700000F8013BF7D11146FFF78EFF204610BDEB
:108C80004FF0013C50F8042B51F8043B9A4221D19B
:108C9000A2EB0C03934313EACC1317D150F8042B27
:108CA00051F8043B9A4215D1A2EB0C03934313EA0B
:108CB000CC130BD150F8042B51F8043B9A4209D144
:108CC000A2EB0C03934313EACC13DBD04FF000006C
:108CD000704700BFD01A01BAB1FA81F101F0180152
:108CE00022FA01F0CB40C1F12001DBB2C0B2C01AC0
:108CF0002CFA01F3D11A914311EAC311E6D170475E
:108D0000704770477047000010B500F047FB001D2A
:108D100010BD00BFB16B000000487047180D002067
:108D200000487047100D002070477047704770472B
:108D300038B504460A4600206946AFF30080002893
:108D400008BF38BD02460099204600F02BFB0120E9
:108D500038BD012001F00CB9F8B5AFF3008005462D
:108D600000200C46102000BF0646A819A0420DD9CD
:108D7000324669460020AFF30080070008BF01F0CB
:108D8000F7F80098A04218BF0546C419FFF7C4FFC2
:108D900005600746F01D20F007004619284600F040
:108DA0000AF8B44208BFF8BDA21B31463868BDE8D6
:108DB000F84000F0F7BA00210160C0E901107047E7
:108DC0001020704770B5044685690068C10601D55A
:108DD000302600E02026C00707D070BDD4E901216D
:108DE00030469047206A401C20626D1EF6D570BD4B
:108DF00070B5044685690078C00707D170BDD4E915
:108E0000012120209047206A401C20626D1EF6D56B
:108E100070BD09684A0501D540B27047C905FCD547
:108E200000B2704709684A0501D5C0B27047C9054C
:108E3000FCD580B270472DE9F0470D469946924621
:108E4000044600F124080168880604D5E06921F091
:108E50001001216000E00120A84201DD471B00E075
:108E60000027A1697A1902EB0900081AA06120788D
:108E7000C00602D42046FFF7A5FF002608E0D4E98B
:108E800001211AF806009047206A401C761C2062D7
:108E90004E45F4DB2078C0060AD52046FFF792FF46
:108EA00006E0D4E9012130209047206A401C20626E
:108EB000381EA7F10107F4DC07E0D4E9012118F816
:108EC00005009047206A401C2062281EA5F101057C
:108ED000F3DC2046FFF78CFF2078000602D5022045
:108EE000BDE8F0870120FBE711680268006A5305BE
:108EF00001D508700AE0D30501D5088006E0130605
:108F000003D5C217C1E9000200E0086001207047E4
:108F100001694A1C02610878704700B58FB0CDE93D
:108F200001310021059105497944CDE9031011462D
:108F30006846FFF757FB0FB000BD0000E5FFFFFFDD
:108F40000A6802F8010B0A607047D1E900239A42CF
:108F500002D2531C0B601070704710B5436913B1F7
:108F6000AFF3008001E0FFF7D7FA012010BD1278BF
:108F700000F124010A7000224A700122EDE7116815
:108F80004FF0FF32E9E700002DE9FF5F15468A4602
:108F90000446DFF8AC80F8440027D8E900103E46CC
:108FA000CDE9001010E03AF816106A4602A800F069
:108FB000BFFF411C07D02178890603D5E269391823
:108FC00091420DD80744761C2078800602D5E069CE
:108FD000B84205DDAE42E6DB3AF816000028E2D1E1
:108FE000A069C01BA0612046FFF7ECFED8E9001085
:108FF000CDE90010002017E03AF818106A4602A8E0
:1090000000F096FFB0F1FF3F81460BD000250DF137
:10901000080B05E0D4E901211BF8050090476D1C01
:109020004D45F7D308F10100B0428046E4DB206AE9
:10903000384420622046FFF7DBFEBDE8FF9F0000BA
:10904000BE6900002DE9F0418046D21D22F00702E2
:109050000025D2E90002F52915A614D0011E72F1EF
:10906000000106DA0023D0EB030063EB020211A635
:1090700008E0D8F800108B0701D50FA602E04907D9
:1090800001D50EA601251146002408F1240704E0AD
:1090900000F0A2F930323A55641C50EA0102F7D1CF
:1090A0002B46324621464046BDE8F041FFF7C3BE9D
:1090B000000000002D0000002B0000002000000038
:1090C00030B4002100F1240408E002F00705D208C2
:1090D000303542EA4372DB086554491C52EA030505
:1090E000F3D10468002310A2250707D5A40600D4F5
:1090F00021B1C46901230DA2641EC46130BCFFF715
:109100009ABE10B5044621461068FFF78BFE024652
:109110002046BDE810400023D2E7D21D22F007010F
:10912000D1E90023CCE7000000000000300000007F
:10913000F0B40D460188090502D5214C7C4402E0BB
:109140001F4C7C440E34002100F1240608E002F09C
:109150000F071209E75D42EA03721B097754491CA5
:1091600052EA0307F3D102780023120704D5702DC9
:1091700006D009B1022311342246F0BCFFF75BBED2
:1091800001231034F8E770B504460D4621461068F7
:10919000FFF748FE024629462046BDE870400023FE
:1091A000C6E7D21D22F00703D3E90023C0E7036816
:1091B000126843F0200303600823C3610023B7E76C
:1091C000206800003A2800D2303820F02002412ADE
:1091D00001D3A2F13700884201D34FF0FF3070472E
:1091E000026811441378016018467047D160054940
:1091F0007944516104497944116200211161114699
:1092000000F0DCBCEDFFFFFF69020000426842B1E4
:10921000016811F8013B23B1521EC0E90012184643
:1092200070470121C160881E704742685AB1C36807
:10923000016843B983688B4205D0491E521CC0E9BE
:109240000012002070474FF0FF3070472DE9F05FAB
:10925000824615468B4600270AF10104B94600787C
:10926000302801D09DB113E014F8010B01277828B4
:1092700003D0582801D045B10AE00DB1102D07D117
:10928000002714F8010B102502E0082500E00A254C
:109290000026B0460EE005FB080005FB06F101279D
:1092A0001FFA80F801EB1046B6F5803F00D3B946AF
:1092B00014F8010B2946FFF785FF0028EBDABBF114
:1092C000000F05D00FB1641E00E05446CBF80040FB
:1092D000B9F1000F06D0FFF723FD02210160C81E7F
:1092E000BDE8F09F48EA0640FAE700002DE9F041AA
:1092F00015460E46040002D12C6804B90BA4204682
:1093000000F04DFE0444207870B1274631463846BF
:1093100000F035FE0444207810B1002004F8010B61
:1093200038462C60BDE8F0810027F9E70000000016
:1093300010B5203AC0F00B80B1E81850203AA0E8F0
:109340001850B1E81850A0E81850BFF4F5AF5FEA24
:10935000027C24BFB1E81850A0E8185044BF18C9D7
:1093600018C0BDE810405FEA827C24BF51F8043B7E
:1093700040F8043B08BF7047D20728BF31F8023BD2
:1093800048BF11F8012B28BF20F8023B48BF00F866
:10939000012B704700487047100D002000487047AF
:1093A000300D0020034640688C46002818BF8842D4
:1093B0003CBF03464068F8D318681844884207D079
:1093C0000CF1030020F00700001D411A521A01465B
:1093D000081D0A60FEF7D1BF30B5B0F10A024FEAAE
:1093E000900E71F100034EEA817EB0EB0E0061EB4E
:1093F00091014FEA101E4EEA017E10EB0E0041EB88
:1094000011114FEA102E4EEA016E10EB0E0041EBE7
:1094100011214FEA104E4EEA014E10EB0E0041EBC7
:109420001141401841F100014FEAD00040EA41707B
:109430004FEAD10110EB80054FEA810444EA9074B1
:1094400044EB01046D1944EB0404521BA3414FF09B
:10945000000348BF0A3200D530BD401C41F1000175
:1094600030BD10B50446FFF74FFC0068005D00F00A
:10947000010010BD70472DE9FF4F0C461E464FF00E
:10948000FF378BB0D2E90001DDF860800A908A4690
:10949000C1F30A5505B93D46002108464FF00000CA
:1094A000BAF1000F00F4400005DA00EB80004FF441
:1094B000400101EA50004FEA9059B9F1010F00DD77
:1094C000B9460A9850EA4A000ED044F61050A5F268
:1094D000FF3545432F14B8F1000F1ED07542291EE9
:1094E0001EDDC9F100021CE0B8F1010F4FF00000D1
:1094F00001D0302103E0F24305E02154401CB0428A
:10950000FBDB30460022002121540B99C1F8088072
:10951000C1E900200FB0BDE8F08FBD1B6D1CDEE778
:109520004A4600DA694206A800F0AEFD06AB93E8B1
:10953000070003AB83E8070050460A9900F072FE6B
:109540008DE80700A0F500501F3800900398002D0B
:109550000ADD42F21F014A460844002303A9039092
:10956000684601F0DBF809E0A0F500504A461F38D4
:10957000002303A90390684601F0E5F88DE8070091
:109580000004000C03D04FF0FF30410800E010460B
:10959000B8F1000F03D00022009215461EE0751EA0
:1095A00005D4FFF719FF303262556D1EF9D5B34669
:1095B0000122084302D000227F1C04E020783028DA
:1095C00001D100227F1E002A099784D01DE0112DB1
:1095D00007DAFFF701FF303262556D1C50EA0102D5
:1095E000F5D1084302D00098C8B10EE00021681EF2
:1095F00005E0235C625C63542254401E491C814296
:10960000F7DBAB46A81B401E0990002004F80B00B6
:109610000B98099AC0F80880C0E9002B7AE7112658
:109620004FF0000857E72DE9F04F88460446D21D59
:1096300022F0070191B0D1E90001CDE90A0104F05F
:10964000F8F902460B98C00F01D02D2007E02068E2
:10965000810701D52B2002E0202101EAC000032A66
:10966000099001D0072A05DB03464146204600F059
:10967000CBFC0BE12078800601D5E06900E00620F4
:10968000B8F1650F814606D0B8F1660F18D0B8F171
:10969000670F70D131E00020B9F1110F009001DBAC
:1096A000112301E009F101030AAA01A90CA8FFF79F
:1096B000E2FEDDE90C70002609F10105834647E072
:1096C00001204B4600904FF000470AAA01A90CA8C0
:1096D000FFF7D1FEDDE90DB00C995D46002610B90B
:1096E00009F101000D18B9EB050003D4C0F1FF36F4
:1096F00009F10105A5EB09002BE0B9F1010F01DA31
:109700004FF001090020B9F1110F0090484601DD2A
:10971000112300E003460AAA01A90CA8FFF7ABFE3B
:10972000DDE90C704D4600268346207800070AD4F8
:10973000AB4500DA5D4601A8012D04DD411911F8A1
:10974000011C302907D04F4502DA17F1040F04DA63
:10975000012082460FE06D1EEEE7002F02DCED1BBC
:109760003E4403E0781CA84200DD7D1CB81B00F1DC
:10977000010A4FF000472078000703D4AA4501DB17
:109780004FF0FF3A0021B7F1004F0DF143088DF87B
:10979000431024D002202B23002F01DA7F422D23F7
:1097A0000A21021EA0F1010000DC5FB197FBF1FC71
:1097B00097FBF1F201FB1C7C17460CF1300C08F80A
:1097C00001CDEEE7A8F1010003702188090501D55C
:1097D000452100E06521A0F1010800F8011C09986D
:1097E0000FA9A1EB0807FF1D00B10120411901EBF2
:1097F000EA70A1693844081A401EA0612078C006AA
:1098000002D42046FFF7DEFA099828B1D4E90121F5
:109810009047206A401C20622078C00622D520464E
:10982000FFF7D0FA1EE0002E04DBB34502DD01A8ED
:10983000805D00E03020D4E901219047206A401C7F
:109840002062761CAAF101005FEA000A0AD1FFF744
:10985000A5FDC0680168405CD4E901219047206AF9
:10986000401C2062281EA5F10105DCDC07E0D4E9DC
:10987000012118F8010B9047206A401C2062381E15
:10988000A7F10107F3DC2046FFF7B2FA032011B07D
:1098900041E600002DE9F04F04460D46D21D22F0AE
:1098A000070089B0D0E900974846394604F0C1F86E
:1098B0000246F80F01D02D2307E02068810701D56B
:1098C0002B2302E0202101EAC0038DF820300BB1E8
:1098D000012000E00020032A824601D0072A04DB91
:1098E0002946204600F090FB3FE12078800601D415
:1098F0000D2500E0E569C7F30A560D2D49DA002170
:109900004FEA175B08464FF00000002F00F44000BC
:1099100007DA00EB80004FF4400100EBD07001EA61
:1099200060008115012901DD4FF0FF3100224FEA6F
:10993000850CBCF1180F06D31346ACF118004FF09C
:109940008052C24003E04FF4801323FA0CF30CF171
:109950000C0CBCF1200F04D3ACF1200C09FA0CF074
:1099600001E007FA0CF000294FF0004801DD18B9BA
:109970000FE00ED140450CD319EB02095F4121B92C
:10998000404502D19F4329EA0209BBEB175F00D093
:10999000761C2088000502D57B48784402E07A488E
:1099A0007844193808AA302302F80A30037C0AF1F7
:1099B0000101002E0AF1020A53546A4602DC4FF0FC
:1099C000300101E04FF031014FF001088DF8001037
:1099D00002D0A6F2FF3603E059EA470100D06B4EF1
:1099E000002D02DC2178090704D54FF002082E2152
:1099F0008DF80110C44600210BE0C7F303433F017B
:109A0000C35C491C6D1E02F80830052908F10108E5
:109A100001DA002DF1DC00210CE000EB1973491C88
:109A20001B786D1E082902F808304FEA091908F161
:109A3000010801DA002DF0DC21688B0602D516E062
:109A4000A8F10108E04505DD02EB080313F8013C2D
:109A5000302BF5D0B8F1000F09DD02EB080313F845
:109A6000013C2E2B03D1090701D4A8F10108002DD8
:109A700005DD3E2102F808106D1E08F10108407C4A
:109A8000002E02F8080008F1010804DA2D207642C1
:109A900002F8080002E02B2002F808000A214FF427
:109AA0007A70864208F101080BDB96FBF0F3303345
:109AB00002F8083096FBF0F308F1010800FB13668A
:109AC00001E0642E0CDB642096FBF0F3303302F8E7
:109AD000083096FBF0F308F1010800FB136601E083
:109AE0000A2E06DB96FBF1F0303002F8080008F190
:109AF000010896FBF1F001FB1060303002F808001D
:109B0000A16908F1010808EB050202EB0A00081A36
:109B1000A0612078C00602D42046FFF753F9216ADD
:109B200008AE01EB0A00206204E0D4E9012116F836
:109B3000010B9047BAF1010AF7D22078C00602D58E
:109B40002046FFF73FF96E4609E016F8010B3E2864
:109B50000FD0D4E901219047206A401C2062B8F15F
:109B60000108F2D22046FFF743F909B00320BDE80F
:109B7000F08F206A2844206203E0D4E901213020DC
:109B800090476D1EEBD3F8E7FD5F000002FCFFFF7E
:109B900010B5436913B1AFF3008001E0FFF7F4F9AA
:109BA000012010BD128800F1240182840022C284A9
:109BB0000122EDE711684FF0FF32E9E72DE9F34F9D
:109BC0004FF0000A0C4656468DB001200C9001F172
:109BD0000C000B9062690B9801219047051E2DD057
:109BE000252D2CD0216A8847C0B162690B980121CC
:109BF0009047216A88470028F7D16269411E0B9877
:109C0000904700E0761CA1690D988847216A884733
:109C10000028F7D1E1690D988847DBE7A1690D9825
:109C20008847A842074601D1761CD3E7E1690D9821
:109C300088477F1C02D1BAF1000F6FD06CE16269D6
:109C40000B9800273D46394690472A2804D162697F
:109C50000B98012190470125DFF8D08262690B98AB
:109C600001219047A0F130010A290AD24745E5DCDD
:109C700007EB870100EB4107303FDFD445F01005CB
:109C8000ECE7E90601D46FF000476C280AD04C28B5
:109C900014D0682815D06A280DD074281CD07A28D2
:109CA0001AD01DE062690B98012190476C2802D000
:109CB00045F0040514E045F002050DE045F02005EF
:109CC0000AE062690B9801219047682802D045F0AC
:109CD000080505E045F4006562690B98012190478D
:109CE000C4E9015765283DD019DC58287AD00CDC2E
:109CF000452837D004DC252826D041289ED131E0E4
:109D000046282FD0472899D12CE05B2877D06128AE
:109D100028D063287CD0642823D15AE0F7E06F284C
:109D200048D008DC66281DD067281BD0692821D0C0
:109D30006E2816D127E0702845D0732868D0752882
:109D400047D078280DD14DE0A1690D988847252886
:109D500005463FF469AFE1690D9888476D1C3FF4F3
:109D60006AAFD9E00D9923466A466FF00100AFF360
:109D70000080C6E045F0400023464FF000026060DE
:109D8000A80736D43EE0E8077FF447AF2068011DFE
:109D900021600068290501D506701BE7290701D558
:109DA000068017E7A90703D5F117C0E9006111E79D
:109DB00006600FE745F0400023464FF00802606060
:109DC000A80716D41EE040F60E0125EA01006060E7
:109DD00016E045F0400023464FF00A026060A807F5
:109DE00007D40FE045F040006060A80708D523467F
:109DF00010220D996FF00100AFF3008081E007E0C1
:109E0000102223460D996FF00100FEF7CDFC78E09B
:109E10004FF0000963284F46C8464B46CB4602D058
:109E20005B2807D039E02079C00601D40120A0606A
:109E3000012732E06269D4F80CB00B9801219047F9
:109E40005E2807D14FF0010949466269D4F80CB089
:109E50000B989047216939B900210A4603AB43F8B2
:109E60002120491C0829FADBD8B3216949B308F13C
:109E7000010862690B98012190475D28F4D1B9F17E
:109E8000000F09D0002003A951F82020D24341F847
:109E90002020401C0828F7DB03AB2069002820792C
:109EA0004FEA40701ED05B462246CDF80080CDE9D7
:109EB00001970D9900286FF0010020DAAFF30080C0
:109EC0001FE0C11703AA00EBD1614B1121F01F0164
:109ED00002EB8302411A1368012088400343136098
:109EE000C7E719E00D99224600286FF0010000979E
:109EF00002DAAFF3008004E0FEF7FCFC01E0AFF310
:109F0000008000280ADA401C06D10C9820B14FF0DE
:109F1000FF300FB0BDE8F08F5046FAE7E90701D1F6
:109F20000AF1010A064400200C9053E6CCCCCC0C7C
:109F300070B516460C460546FEF7E6FE036893F834
:109F40000101012806D0FF2C0FD8185D68B101204F
:109F50002C7070BDD3F807013246214603F2071377
:109F600003442846BDE8704018474FF0FF3070BDED
:109F700010B500F009F9BDE8104000F000B930B5A7
:109F800003461D781DB10A4603E0AC4201D1181A00
:109F900030BD12F8014B002CF7D15B1CF1E730B556
:109FA00003461D783DB10A4612F8014B1CB1AC4284
:109FB000FAD15B1CF5E7181A30BD70477546FFF7FC
:109FC000E9F9AE4605006946534620F0070085468C
:109FD00018B020B5FEF790F9BDE820404FF000061C
:109FE0004FF000074FF000084FF0000B21F0070181
:109FF000AC46ACE8C009ACE8C009ACE8C009ACE8C4
:10A00000C0098D46704700002DE9F0411F46044607
:10A0100003260168072A01F4006004DB08B116A5D5
:10A0200005E016A503E008B115A500E015A521F08F
:10A0300010002060A069C01EA0610FB1401EA06189
:10A040002046FEF7BFFE4FB1D4E9012138469047C4
:10A05000206A401C2062C01C206206E0206AFAE7E9
:10A06000D4E9012115F8010B9047761EF8D220465D
:10A07000FEF7BEFEBDE8F0814E414E006E616E00FF
:10A08000494E4600696E66002DE9F0478146164646
:10A090008AB0354878440DC88DE80D0032487844C0
:10A0A000801C03AC0DC884E80D0041F69B300844C9
:10A0B000372190FBF1F290FBF1F5A5F1800501FB52
:10A0C00012041B3C02D56442012000E00020DFF8AE
:10A0D00098A080460027FA44AAF1BE0A0EE0E007E5
:10A0E0000AD03246684607EB470101230AEB81019B
:10A0F00000F029FB8DE8070064107F1C002CEED1D6
:10A10000194F7F44AE3F19E0E80715D007EB041064
:10A110000DF1180A90E80E008AE80E00C068F042BF
:10A1200001D1981908903246012306A903A800F02E
:10A130000AFB03AB83E807006D10641C002DE3D11C
:10A140004FF0010332466946B8F1000F03A802D070
:10A1500000F0E4FA01E000F0F6FAC9E90001C9F8FC
:10A1600008200AB0BDE8F0879459000010B50446F5
:10A17000AFF300802046BDE81040FEF7A8B80028E5
:10A1800001D000F029B8704710B5012805D0002192
:10A1900003A000F027F8012010BD09A1F8E7000096
:10A1A00053494752544D454D3A204F7574206F66C0
:10A1B0002068656170206D656D6F72790000000028
:10A1C0003A2048656170206D656D6F727920636F0C
:10A1D000727275707465640001491820ABBEFEE7A9
:10A1E0002600020070B505460C460A2000E06D1CF2
:10A1F00000F011F835B128780028F8D102E0641C8D
:10A2000000F009F814B120780028F8D1BDE87040BA
:10A210000A20AFF3008008B569468DF800000320DE
:10A22000ABBE08BD5FEA400C08BF91F0000F4FEADB
:10A230008C234FEAC12243EA51514FEA1C5018BF08
:10A2400000F5F0404FEA300018BF41F000415FEAEE
:10A250006C5C00F02980BCF1FF3F08BF40F08040FB
:10A260007047130C06BF12044FF0100C4FF0000C97
:10A27000130E04BF12020CF1080C130F04BF1201DD
:10A280000CF1040C930F04BF92000CF1020CD30FDD
:10A2900004BF52000CF1010C11464FF00002A0F176
:10A2A0001F00A0EB0C00704711F0004F08BF704773
:10A2B00031F000413FF4D5AF0B0C06BF09044FF05D
:10A2C000100C4FF0000C0B0E04BF09020CF1080C2F
:10A2D0000B0F04BF09010CF1040C8B0F04BF8900A4
:10A2E0000CF1020CCB0F04BF49000CF1010CCCF1B6
:10A2F0002003A0EB0C0022FA03F302FA0CF241EA6D
:10A30000030100F10100704720F07F4C80EA030058
:10A3100023F07F47ACEB070303F57C5300F00040CC
:10A3200003F1FF032DE980494FEA154B09B44FEAC9
:10A33000144325EA0B4E24EA03480FF2042606EBE9
:10A34000132749083E785FEA320203FB0667C7F528
:10A35000000707FB06F64FEA54374FEAD64606F1E8
:10A36000020607FB066CCCF1005C4FEA1C472CEAA6
:10A37000074C07FB06F40CFB06F504EB15464FEA09
:10A38000961634BF00204FF000404FEAD13706FB4D
:10A3900007FC4FEA1C4C0CFB0BF7D21B03FB0CF722
:10A3A00061EB07010CFB0EF7B0EB074072EB1742B5
:10A3B0000CFB08F734BFA2EB0742B2EB074261EB9C
:10A3C00017414FEA0C444FEA910706FB07FC4FEA9E
:10A3D0001C4C0CFB0BF7B0EBC74072EB573203FB86
:10A3E0000CF734BFA2EBC742B2EBC74261EB573167
:10A3F0000CFB0EF7B0EBC70072EB57720CFB08F7C3
:10A4000034BFA2EBC702B2EBC70261EB5771039FE7
:10A410004FEA816141EA921104EBCC044FEAD13753
:10A420004FEA826206FB07FC42EA90124FEA806024
:10A430004FEA1C4C0CFB0BF7D21B03FB0CF761EB38
:10A4400007010CFB0EF7B0EB074072EB17420CFB59
:10A4500008F734BFA2EB0742B2EB074261EB1741AA
:10A460004FEA8C554FEA910704EB9C2406FB07FC4E
:10A470004FEA1C4C0CFB0BF7B0EBC74072EB5732AA
:10A4800003FB0CF734BFA2EBC742B2EBC74261EB50
:10A4900057310CFB0EF7B0EBC70072EB57720CFB99
:10A4A00008F734BFA2EBC702B2EBC70261EB5771EA
:10A4B00015EB4C254FEA816141EA92114FEA826225
:10A4C0004FEAD13742EA901206FB07FC44F1000440
:10A4D0004FEA80604FEA1C4C0CFB0BF7D21B03FBCE
:10A4E0000CF761EB07010CFB0EF7B0EB074072EBCA
:10A4F00017420CFB08F734BFA2EB0742B2EB07424E
:10A5000061EB174115EB1C154FEA813141EA92418D
:10A510004FEA823242EA90424FEA80304FEA0C76AC
:10A5200044F1000448EA03434EEA0B484FF0000EA2
:10A53000B2EB080C71EB030724BF624639464EEBC1
:10A540000E0E4FF0000B0018524149414BEB0B0B24
:10A55000B2EB080C71EB03077BF1000B24BF6246E2
:10A5600039464EEB0E0E4FF0000B00185241494198
:10A570004BEB0B0BB2EB080C71EB03077BF1000B01
:10A5800024BF624639464EEB0E0E51EA020718BF51
:10A5900046F0010616EB0E7655F1000254F100016B
:10A5A00003D5BDE88901BDE80088BDE88901BDE8A3
:10A5B0000048B619524141EB0101A3F10103704774
:10A5C00080807F7E7D7C7B7A7978777676757473F0
:10A5D000727171706F6E6E6D6C6C6B6A6A696868AF
:10A5E000676666656464636362616160605F5F5E45
:10A5F0005E5D5D5C5C5B5B5A5A59595858575756BB
:10A60000565555555454535352525251515050501F
:10A610004F4F4F4E4E4D4D4D4C4C4C4B4B4B4A4A71
:10A620004A494949484848474747474646464545B5
:10A6300045444444444343434342424242414141EE
:10A64000002B9C4630D477002BD01CB54FEA37073F
:10A6500003B44FF010004FF01001BAF1000F06D014
:10A66000BCF1000FDCBF40F0080040F008014FF0E3
:10A6700000000FBCBDE810400BF1010BBBF1010F56
:10A6800008BF5FEA170722BF12F1010211F10101B1
:10A690004FF0004143F1000300F0004043EA0000A6
:10A6A0007047F9D35708D0E746EA064613F1400F42
:10A6B0004FEA16461FDD13F1200FDFBF16430A468F
:10A6C000002120335B42BED0C3F1200746EA064694
:10A6D00002FA07F74FEA164646EA0706C3F12007D3
:10A6E00022FA03F201FA07F721FA03F14FF000030F
:10A6F00042EA0702A7E746EA020646EA06464FEAAA
:10A70000164646EA0106BCBF46EA0646360C4FF03E
:10A7100000034FF000024FF0000194E72DE9804C58
:10A720009A46934670B491E8380007C831EA400C65
:10A7300048BF34EA430C03D5FFF7E6FDFFF780FF7F
:10A74000F0BCBDE8008C2DE9804C9A46934670B46D
:10A7500091E8380007C810F0804F08BF13F0804F11
:10A7600003D100F005F8FFF76BFFF0BCBDE8008CEB
:10A7700020F07F4780EA030023F07F4C07EB0C03B7
:10A78000A3F57C5300F00040A3F1FE0392F0000F0C
:10A7900000F0B38095F0000F00F077802DE90149BB
:10A7A0004FEA11404FEA144621EA004800FB06FC3C
:10A7B00024EA064708FB06F607FB08F800FB07F744
:10A7C00018EB06484CEB164C4FEA124B18EB0748B7
:10A7D0004FEA15464CEB174022EA0B4E0BFB06FCEA
:10A7E00025EA06470EFB06F607FB0EFE0BFB07F7F6
:10A7F0001EEB064E4CEB164C4FF000061EEB074EC0
:10A800004CEB174B18EB0B0840F1000018EB0E0B4C
:10A8100058EB000840F100008F1A4FF000013CBFD8
:10A82000C943661B14BFB5EB040C00213CBFC943F0
:10A83000F61B4FEA17444EEA8E0E27EA04454FEA0C
:10A840001C4704FB07622CEA074C05FB07F70CFBCF
:10A8500005F604FB0CFC16EB074642EB174216EB21
:10A860000C4642EB1C421BEB060658EB0202414130
:10A8700046EA9E0601D5BDE80189B619524141EB71
:10A880000101A3F10103BDE801894FEA14454FEA34
:10A89000114724EA054621EA074C05FB07F406FBAD
:10A8A00007F70CFB06F105FB0CFC11EB074144EB31
:10A8B00017444FEA124711EB0C4144EB1C4422EAC7
:10A8C000074C05FB07F206FB07F70CFB06F605FB3A
:10A8D0000CFC16EB074642EB174216EB0C4642EB1C
:10A8E0001C456A1854F1000148BF7047B61952411F
:10A8F00041EB0101A3F10103704795F0000F37D040
:10A900004FEA11424FEA144721EA024624EA074C73
:10A9100002FB07F106FB07F70CFB06F402FB0CFC3D
:10A9200014EB074441EB17414FEA154714EB0C4475
:10A9300041EB1C4125EA074C02FB07F506FB07F734
:10A940000CFB06F602FB0CFC16EB074645EB174525
:10A9500016EB0C4645EB1C42121951F1000148BFA1
:10A960007047B619524141EB0101A3F10103704751
:10A970004FEA14454FEA114724EA054621EA074CFD
:10A9800005FB07F106FB07F70CFB06F24FF000068C
:10A9900005FB0CFC12EB074241EB174112EB0C429A
:10A9A00051EB1C4148BF7047921841EB0101A3F1E4
:10A9B00001037047FEE7704710B54FF4806000F068
:10A9C0007BF8BDE810404FF4006000F075B84FF41C
:10A9D000007000F071B872B6FEE72DE9F041044650
:10A9E000876D00F07FF9064694F8350000250228AF
:10A9F00006D08020606584F834500120BDE8F081E5
:10AA00002068016821F0160101602068416921F089
:10AA100080014161206C08B9A06C20B120680168F8
:10AA200021F0080101602068016821F00101016046
:10AA30000CE000F057F9801B052807D9202060653D
:10AA4000032084F8350084F83450D7E72068006884
:10AA5000C007EED194F85C103F208840B860012018
:10AA600084F8350084F834500020C7E790F835109A
:10AA7000022903D08021416501207047052180F81B
:10AA800035100068016821F0010101600020704765
:10AA900070B5044600F026F90546601C02D0044853
:10AAA0000078044400F01EF9401BA042FAD370BDA8
:10AAB0000000002070470000044910B50A680242F7
:10AAC00002D00860FFF7F6FF10BD0000143C014003
:10AAD0002DE9F84FDFF8BCA10022012503264FF035
:10AAE0000F090AF1040BAAF1040E00BF0B6805FA66
:10AAF00002F42340A34270D10F7907F00307012F1E
:10AB000001D0022F16D187684FEA420806FA08FCE6
:10AB100027EA0C07D1F80CC00CFA08FC4CEA070C29
:10AB2000C0F808C04768A7430C79C4F300149440E8
:10AB30003C4344600C79E443A4070AD0C4684FEA5C
:10AB4000420C06FA0CF7BC438F6807FA0CF7274350
:10AB5000C7600C7904F00304022C12D1D40800EB76
:10AB6000840CDCF820405707FF0E09FA07F824EAA6
:10AB70000804D1F8108008FA07F848EA0408CCF86D
:10AB8000208004684FEA420C06FA0CF7BC430F79A8
:10AB900007F0030707FA0CF7274307604C6814F423
:10ABA000403F70D03C4C276847F4804727602468BA
:10ABB00022F0030704F480440094384C07EB040CA3
:10ABC000DCF8084897074FEA177809FA08F7BC43FA
:10ABD000334FB84202D1002724E054E0314FB8424D
:10ABE00001D101271EE0304FB84201D1022719E000
:10ABF0002E4FB84201D1032714E02D4FB84201D1A6
:10AC000004270FE02B4FB84201D105270AE02A4F55
:10AC1000B84201D1062705E0284FB84201D10727E5
:10AC200000E0082707FA08F72743CCF80878DAF895
:10AC300000405746D1F804C09C435FEACC2C00D5B5
:10AC40001C433C60DBF800405F46D1F804C09C43E5
:10AC50005FEA8C2C00D51C433C60DEF80040774650
:10AC6000D1F804C09C435FEA8C3C00D51C433C6097
:10AC7000084F083F3C68D1F804C09C435FEACC3CD5
:10AC800000D51C433C60521C102AFFF42FAFBDE8D6
:10AC9000F88F0000083C0140443802400030014079
:10ACA000000002400004024000080240000C024084
:10ACB000001002400014024000180240001C024034
:10ACC0000069084000D001207047426921EA020370
:10ACD0000A4043EA0241816170470AB181617047CD
:10ACE0000904FBE70148806870470000000000206D
:10ACF00070B5040025D094F83D00002520B984F8F3
:10AD00003C50204600F0B8F8242084F83D0020682C
:10AD1000016821F0010101602068016841F40041EF
:10AD200001602068016821F40041016000F0F2FA3E
:10AD30004D4A6168914201D84C4900E04C49884233
:10AD400001D2012070BD4B492368B0FBF1F15E6870
:10AD500026F03F060E435E606368934206D94FF4C7
:10AD6000967359434FF47A73B1FBF3F12368491C8E
:10AD70001E6A26F03F06314319626168914210D87D
:10AD80004900401EB0FBF1F2521CC2F30B02042A30
:10AD900001D2042022E0B0FBF1F0401CC0F30B0014
:10ADA0001CE0A268F2B301EBC10303EB0116431EE2
:10ADB000B3FBF6F35B1C43F480431B0549D092B30D
:10ADC00001EBC10202EB0111401EB0FBF1F0401C8F
:10ADD000C0F30B0040F4804040F400402168CA6991
:10ADE0004CF6FF739A431043C861D4E9071001433E
:10ADF0002068026822F0C00211430160D4E9030117
:10AE000001432068826848F2FF339A43114381600E
:10AE1000D4E9050108432168CA6822F0FF02104303
:10AE2000C86001E00EE016E02068016841F0010111
:10AE300001602564202084F83D00256384F83E509D
:10AE4000002070BD01EB4106431EB3FBF6F35B1C13
:10AE5000B3E70120C2E701EB4101401EB0FBF1F076
:10AE6000401CC0F30B00B7E7A086010080841E00E1
:10AE700000093D0040420F002DE9F04186B0044634
:10AE800014216846FDF7AAFE2F4A2168DFF8BC802E
:10AE900000242E4812250326042708F110089142A9
:10AEA0001CD1016841F002010160006802AA00F0B3
:10AEB00002000590C020CDE9000582E8D000694677
:10AEC0002348FFF705FED8F8001041F40011C8F838
:10AED0000010D8F8000000F4001031E01D4A914243
:10AEE0002FD1016841F004010160016801F0040103
:10AEF0000591016841F0010101600068694600F0B8
:10AF0000010005905015CDE9000502AA124882E81B
:10AF1000D000FFF7DDFD4FF48070CDE9000502AAF7
:10AF2000694682E8D0000D48FFF7D2FDD8F800103E
:10AF300041F40001C8F80010D8F8000000F4000047
:10AF4000059006B0BDE8F081005400403038024062
:10AF500000040240005C0040000802400000024083
:10AF60000248816802781144816070470000002027
:10AF70000B4810B5016841F400710160016841F4AB
:10AF800080610160016841F480710160032000F07C
:10AF90006FF80F2000F006F800F024F8002010BD34
:10AFA000003C024070B50D4D04464FF47A7128788C
:10AFB000B1FBF0F00A490968B1FBF0F000F0DDFFE9
:10AFC00048B9102C07D200222146501E00F030F85C
:10AFD00000206C6070BD012070BD000000000020EA
:10AFE0000C0000200A4808B5016841F48041016066
:10AFF000006800F4804000900548001F016841F09F
:10B0000080510160006800F08050009008BD000091
:10B0100044380240002809DB00F01F020121914062
:10B020004009800000F1E020C0F8001170470000E6
:10B03000F0B40E4B1B680C46C3F30223C3F10705A3
:10B04000042D00D90425191D072901D2002300E091
:10B05000DB1E012606FA05F1491E214099409E405B
:10B06000761E16403143F0BC02F0FBBC0CED00E054
:10B07000064900F0070208684FF6FF03184040EA4F
:10B080000220034A10430860704700000CED00E006
:10B090000000FA052DE9F843054600684FF0010964
:10B0A000C1074FF0000601D1400727D5DFF80C811A
:10B0B000C8F86860FFF716FE0746414C05E000BF80
:10B0C000FFF710FEC01B022857D820680001F7D4F4
:10B0D00068688101287A41EA007039498431086042
:10B0E000C8F86890FFF7FEFD074604E0FFF7FAFD99
:10B0F000C01B022841D820680001F7D528788007B6
:10B1000052D52F484030016841F0805101600068FD
:10B110002C4C00F080500090206840F4807020603B
:10B12000FFF7E0FD074604E0FFF7DCFDC01B022847
:10B1300023D82068C005F7D5214C7034206810F45E
:10B14000407020D0A98901F4407181421BD0206851
:10B150001D4920F44070C1F800900E602060206806
:10B16000C00710D0FFF7BEFD064641F2883707E062
:10B17000FFF7B8FD801BB84202D90320BDE8F88371
:10B1800020688007F4D5E9680D48C1F30122083032
:10B19000032A0BD0016821F4F81101602068A98905
:10B1A000C1F30B01084320600020E7E70268074B6A
:10B1B00022F4F81219400A430260EFE70000474208
:10B1C0000038024000700040400E4742FFFCFF0F75
:10B1D000704700002DE9F0470E46050065D0DFF806
:10B1E0001481D8F80000F7B200F00700B04207D28F
:10B1F00088F80070D8F8000000F00700B04254D181
:10B2000028683D4C810712D5400703D5206840F4DB
:10B21000E05020602878000703D5206840F46040A3
:10B2200020602068A96820F0F0000843206028789A
:10B23000C0072DD0304968680839012812D002288B
:10B2400013D0032811D00968890700292DDA216855
:10B2500021F0030101432160FFF744FD814641F2E3
:10B26000883A0EE009688903EFE709688901ECE78D
:10B27000FFF738FDA0EB0901514502D90320BDE8D5
:10B28000F0872068696800F00C00B0EB810FEFD107
:10B29000D8F80010404601F00701B14207D9077005
:10B2A000006800F00700B04201D00120E7E72878ED
:10B2B000400705D52068E96820F4E0500843206085
:10B2C0002878000706D52068296920F4604040EA04
:10B2D000C100206000F03EF82168084AC1F3031164
:10B2E000515CC8400649086006480068FFF75AFEEE
:10B2F0000020C4E7003C0240083802402EF9000854
:10B300000C0000200400002001490120C86470479F
:10B31000000047420448054900680968044AC1F32F
:10B320008221515CC84070470C0000200838024060
:10B330003EF900080448054900680968044AC1F359
:10B340004231515CC84070470C0000200838024070
:10B350003EF90008154810B5006810F00C021448BA
:10B3600013D04110042A0FD0082A0ED10F4C241FED
:10B370002268236802F03F025B0207D52068C0F311
:10B380008810A0FB010106E0084610BD2168C1F34A
:10B390008811A1FB00010023FDF716F82168C1F315
:10B3A0000141491C4900B0FBF1F010BD08380240D2
:10B3B0000024F400054810B50068000605D5FFF725
:10B3C00007FF02498020891C087010BD0C3802401C
:10B3D0002DE9F84F04006ED02078DFF84C93C007B9
:10B3E000A9F104054AD009F104000168C1F3810103
:10B3F000012908D00068C0F3810002280AD1D9F8D9
:10B400000000400206D52868800337D56068002810
:10B41000E1D033E06068B0F5803F10D0B0F5A02FE8
:10B42000286810D020F480302860286820F480201C
:10B4300028606068A8B1FFF755FC06460DE0286853
:10B4400040F48030F4E740F480202860F7E700BF44
:10B45000FFF748FC801B642873D828688003F7D561
:10B460000CE0FFF73FFC064605E000BFFFF73AFCA3
:10B47000801B6428F0D828688003F7D42078DFF890
:10B48000AC8280074FF0000A3ED5A748001D016836
:10B4900011F00C0F08D00068C0F3810002280BD116
:10B4A000D9F80000400207D42868800716D5E06864
:10B4B000012800D112E033E1E068B8B10120C8F8FA
:10B4C0000000FFF70FFC064605E000BFFFF70AFC8F
:10B4D000801B0228C0D828688007F7D52868216912
:10B4E00020F0F80040EAC10028600DE0C8F800A094
:10B4F000FFF7F8FB064604E0FFF7F4FB801B022889
:10B500001FD828688007F7D42078000722D5864FF7
:10B5100087486169703771B101210160FFF7E2FB73
:10B52000064604E0FFF7DEFB801B022809D83868D6
:10B530008007F7D50EE0C0F800A0FFF7D3FB064662
:10B5400005E082E0FFF7CEFB801B02287DD838683B
:10B550008007F7D42078400768D5DFF8CCB1002702
:10B560000BF13C0BDBF80000C0000BD4DBF8001043
:10B5700041F08051CBF80010DBF80000012700F00B
:10B58000805000906B4E3068C00510D4306840F495
:10B5900080703060FFF7A6FB009005E0FFF7A2FB8C
:10B5A0000099401A022850D83068C005F6D55E4E82
:10B5B000A0686C3601280FD00528306810D020F024
:10B5C00001003060306820F004003060A068B8B13D
:10B5D000FFF788FB00900FE0306840F00100F4E7CF
:10B5E00040F004003060F7E7FFF77CFB0099411A58
:10B5F00041F28830814266D830688007F4D50EE089
:10B60000FFF770FB009007E0FFF76CFB0099411A11
:10B6100041F28830814256D830688007F4D42FB187
:10B62000DBF8001021F08051CBF80010A069C8B3FE
:10B630003D49091D0968C1F3810102294AD0022848
:10B64000504607D0C8F8600000E03CE0FFF74AFB36
:10B6500004463BE04746C8F86000FFF743FB064658
:10B6600005E000BFFFF73EFB801B02282BD82868AF
:10B670008001F7D4D4E907010843A16A2E4A49089A
:10B6800002EB0141626A41EA8211084394F82C10EE
:10B6900040EA0161C9F8001001203866FFF722FB7B
:10B6A000044606E03EE000BFFFF71CFB001B02283B
:10B6B00009D828688001F7D534E000BFFFF712FBF6
:10B6C000001B022802D90320BDE8F88F28688001FA
:10B6D000F4D427E00128F7D0D9F80000E26900F49B
:10B6E000800191421CD1226A00F03F01914217D1A2
:10B6F00047F6C071626A0140B1EB821F10D1A26AA5
:10B700004FF0FF3300F4403103EB5202B1EB024F34
:10B7100006D194F82C1000F07060B0EB016F01D0EE
:10B720000120D1E70020CFE7043802400000474263
:10B73000800E4742007000400000FFFF10B504007B
:10B7400002D0607F10B106E0012010BD00202077FC
:10B75000204600F041F8022060772068C168C943A4
:10B76000C90632D5CA214162216853204862204669
:10B7700001F0B0FB20BB20688168164A114081604F
:10B780002168886862681043D4E904231A4310438F
:10B7900088602168E068086120680169228941EABF
:10B7A00002410161204601F0B9FB48B921680A6CE9
:10B7B00022F480220A6421680A6CA3691A430A648D
:10B7C0002268FF21516208B110BD0020012161777C
:10B7D00010BD0000BFFF8FFF1FB500210091019138
:10B7E000029103910068084988420CD10220009020
:10B7F000C00103906846FFF74DFC08B1FFF7EBF876
:10B800000249012008601FBD002800403C0E47424D
:10B8100070B50446007F0B46012819D00126267713
:10B8200002206077B2B19878D97840EA014558781B
:10B830001978000240EA413005432168CA20486275
:10B84000216853204862204601F044FBD0B122E039
:10B85000022070BD5878C10603D500F0EF000A3011
:10B860005870D87801F02AFB0204587801F026FBC2
:10B8700042EA0022987801F021FB0243187842EA5C
:10B880004035DAE70748054020684560204601F06A
:10B8900045FB00B966772268FF21516200212177BC
:10B8A00070BD00003FFFFF002DE9F0410446007F1E
:10B8B0000D46012823D04FF0010884F81C80022097
:10B8C00060772068002780684FEA4060D2B1002886
:10B8D00000DBEF70A878297840EA01466878E978BB
:10B8E000000240EA815006432168CA20486221686C
:10B8F00053204862204601F0EDFAB8B12CE0022056
:10B90000BDE8F081002800DBEF70287801F0D6FA5E
:10B910000204687801F0D2FA42EA0022A87801F025
:10B92000CDFA0243E87842EA8056DDE70D4806404A
:10B93000206806602068816821F480218160D5E953
:10B940000301084321688A6810438860204601F09B
:10B95000E5FA08B984F81D802268FF215162277733
:10B96000CEE700007F7F7F0070B504460B4821685A
:10B97000C860FFF7B7F905464FF47A7607E000BFD5
:10B98000FFF7B0F9401BB04201D9032070BD206819
:10B99000C0688006F4D5002070BD00005F7F010004
:10B9A00070B5040009D0606A002540B12561656169
:10B9B000A56294F8510040B10CE0012070BD6068B0
:10B9C000B0F5827FF4D0E561F2E784F8505020466C
:10B9D00000F044F8022084F851002068016821F04A
:10B9E00040010160A088218900F4827001F40441C3
:10B9F0000843A18901F400610843217C01F00201A0
:10BA00000843217D01F001010843218B01F40071FD
:10BA10000843217F01F03801084394F8201001F019
:10BA200080010843218D01F400510843216808601A
:10BA3000A069042101EA104094F8241001F01001DB
:10BA40000843216848602068C16921F40061C16130
:10BA50006565012084F85100002070BD10B586B0E6
:10BA6000044614216846FDF7B9F814492068884255
:10BA700021D113480021026842F4004202600068AC
:10BA800000F4004005900E481038026842F00402AD
:10BA90000260006800F0040005904FF4E050009050
:10BAA0000220CDE90101032003900620049069469D
:10BAB0000448FFF70DF806B010BD0000003C004040
:10BAC00040380240000802402DE9F84F044690F843
:10BAD0005100984616460F460025012801D0022540
:10BAE00098E060684FF0040BB0F5827F01D1A06848
:10BAF000F8B194F85000012826D04FF0010984F8DD
:10BB00005090FFF7EFF88246002F7FD0002E7DD0B7
:10BB100084F851B000206065A763A687E68720639C
:10BB2000A086E08620646064A068B0F5004F0DD068
:10BB300016E084F851B013460A462046CDF800803E
:10BB400000F024F9BDE8F88F0220FBE720680168C7
:10BB500021F0400101602068016821F4804101600A
:10BB600020680168490603D4016841F04001016082
:10BB7000E068D8B13BE020688168C90709D0007B44
:10BB8000A16B0870A06B401CA063E08F401EE08793
:10BB90000CE0FFF7A7F8A0EB0A01414503D3B8F189
:10BBA000FF3F03D006E0B8F1000F03D0E08F00287C
:10BBB000E1D11FE003252BE020688168C90709D087
:10BBC000C068A16B0880A06B801CA063E08F401E42
:10BBD000E0870CE0FFF786F8A0EB0A01414503D3AC
:10BBE000B8F1FF3F03D0E5E7B8F1000FE2D0E08FF6
:10BBF0000028E1D152464146204601F007FC08B139
:10BC000020206065606D00E000E008B1012501E0E2
:10BC100084F85190002084F85000284692E72DE9DE
:10BC2000F84F044690F850000026984615468A467C
:10BC300001280CD0012784F85070FFF753F8814693
:10BC400094F85100B346012804D002269AE002205D
:10BC5000BDE8F88FBAF1000F6FD0002D6DD0032032
:10BC600084F85100C4F854B0C4F830A0A586E58625
:10BC7000C4F838B0A4F83CB0A4F83EB0C4F844B05E
:10BC8000C4F840B0A068B0F5004F09D12068016841
:10BC900021F0400101602068016841F480410160A9
:10BCA00020680168490603D4016841F04001016041
:10BCB000E068B0F5006F606803D058B3012D29D05B
:10BCC00049E008B1012D1FD1206B21680088C860B0
:10BCD00006E020688168890709D5216B0988C16061
:10BCE000206B801C2063E08E401EE0860CE0FEF797
:10BCF000F9FFA0EB0901414503D3B8F1FF3F03D0A1
:10BD000006E0B8F1000F03D0E08E0028E1D125E075
:10BD1000032635E0206B21680078087306E0206870
:10BD2000816889070AD5216B09780173206B401C53
:10BD30002063E08E401EE0860DE01FE0FEF7D2FF9C
:10BD4000A0EB0901414503D3B8F1FF3F03D0DFE782
:10BD5000B8F1000FDCD0E08E0028E0D14A46414621
:10BD6000204601F081FB08B120206065A06818B969
:10BD70002068C16880680090606D08B1012601E00C
:10BD800084F8517084F850B0304661E72DE9FF4FD8
:10BD900081B0044690F8500000260E9F1D46934641
:10BDA0004FF0010901280FD04FF0010A84F850A08C
:10BDB000FEF798FF804694F85100616801280DD085
:10BDC000B1F5827F08D103E0022005B0BDE8F08F15
:10BDD000A16809B9042801D00226C9E00298002808
:10BDE00065D0BBF1000FFBD0002DF9D094F85100C5
:10BDF000042802D0052084F8510000206065C4F8B2
:10BE000038B0E587A58702992163E586A586206479
:10BE1000606420680168490603D4016841F040016C
:10BE20000160E068B0F5006F606803D0F0B3012DE9
:10BE300047D081E008B1012D3CD1206B21680088FA
:10BE4000C860206B801C2063E08E401EE08631E0DD
:10BE50002068816889070FD5E18E69B1B9F1010FBA
:10BE60000AD1216B0988C160206B801C2063E08EA1
:10BE7000401EE0864FF0000920688168C9070CD099
:10BE8000E18F51B1C068A16B0880A06B801CA063DA
:10BE9000E08F401EE0874FF00109FEF723FFA0EB83
:10BEA0000800B84206D3781C04D001E009E05BE04A
:10BEB00003265BE0E08E0028CAD1E08F0028C7D1BE
:10BEC00040E0206B216800780873206B401C2063E1
:10BED000E08E401EE0862FE02068816889070FD53C
:10BEE000E18E69B1B9F1010F0AD1216B09780173B3
:10BEF000206B401C2063E08E401EE0864FF000095E
:10BF000020688168C9070CD0E18F51B1C068A16B6E
:10BF10000870A06B401CA063E08F401EE0874FF0CC
:10BF20000109FEF7DFFEA0EB0800B84202D3781C3F
:10BF300002D0BAE7002FB8D0E08E0028CCD1E08F35
:10BF40000028C9D142463946204601F08DFA18B181
:10BF50000126202060650BE0A06818B92068C16840
:10BF600080680090606D08B1012601E084F851A05E
:10BF7000002084F85000304627E710B5401EB0F18D
:10BF8000807F01D3012010BD4FF0E02460610F21BC
:10BF9000601701F066FD0020A061072020610020ED
:10BFA00010BD70477047000070B590F83C20012A22
:10BFB00032D0012480F83C40022280F83D20036802
:10BFC0005A689D6822F070060A6832435A60134B23
:10BFD00002689A4214D0B2F1804F11D0104B9A42AD
:10BFE0000ED0104B9A420BD00F4B9A4208D00F4BF9
:10BFF0009A4205D00E4B9A4202D00E4B9A4204D17F
:10C00000496825F080031943916080F83D40002184
:10C0100080F83C10084670BD022070BD0000014051
:10C020000004004000080040000C004000040140F3
:10C03000004001400018004010B5040003D094F8FF
:10C040003D0010B107E0012010BD002084F83C0045
:10C05000204600F01FF8022084F83D00211D2068D2
:10C0600001F006FB012084F8460084F83E0084F8C5
:10C070003F0084F8400084F8410084F8420084F8CE
:10C08000430084F8440084F8450084F83D00002013
:10C0900010BD000008B501681D48B1F1804F11D0F6
:10C0A0001C4A91421DD1016841F002010160006803
:10C0B000002200F00200009011461D20FEF7B8FF9C
:10C0C0001D201FE0016841F00101016000680022AD
:10C0D00000F00100009011461C20FEF7A9FF1C2073
:10C0E00010E00D4A914211D1016841F00801016050
:10C0F0000068002200F00800009011463220FEF790
:10C1000097FF3220BDE80840FEF784BF08BD00005D
:10C110004038024000040040000C004070B5044666
:10C1200090F83C000025012817D0012684F83C60D7
:10C13000022084F83D002068826822F0770222F411
:10C140007F4282600868502838D00DDC20284FD00C
:10C1500005DC90B3102811D14AE0022070BD3028D0
:10C1600046D040280AD13BE060282FD070280DD05F
:10C17000B0F5805F03D0B0F5005F12D0012584F8E0
:10C180003D60002084F83C00284670BDCB68D1E9B2
:10C190000121206801F0D8FA2068816841F0770118
:10C1A00009E0CB68D1E90121206801F0CDFA2068CF
:10C1B000816841F480418160E1E719E0CA6849681B
:10C1C000206801F0D3FA5021206806E0CA68496867
:10C1D000206801F0DCFA6021206801F0BFFACEE7A8
:10C1E000CA684968206801F0C1FA40212068F4E774
:10C1F000226801461046F0E770472DE9F0410446F9
:10C200000068C66805694FF00007A90713D5B10794
:10C2100011D5F91E0161012020772068806980070F
:10C22000204602D0FFF7E8FF04E000F07EF8204649
:10C2300000F07CF82777680716D5700714D52168B9
:10C240006FF004000861022020772068806910F4F4
:10C25000407F204602D0FFF7CFFF04E000F065F8F2
:10C26000204600F063F82777280715D5300713D547
:10C2700021686FF008000861042020772068C069F9
:10C280008007204602D0FFF7B7FF04E000F04DF82A
:10C29000204600F04BF82777E80616D5F00614D5AF
:10C2A00021686FF010000861082020772068C069BD
:10C2B00010F4407F204602D0FFF79EFF04E000F01C
:10C2C00034F8204600F032F82777E80708D0F00766
:10C2D00006D021686FF001000861204600F027F8C1
:10C2E000280608D5300606D521686FF08000086161
:10C2F0002046FFF756FE680608D5700606D5216869
:10C300006FF040000861204600F012F8A8060AD538
:10C31000B00608D521686FF0200008612046BDE80E
:10C32000F041FFF73FBEBDE8F081704770477047AE
:10C330007047704770470000F8B501680446086808
:10C34000CA684B6910F00F0F4FF0000559D003F089
:10C35000010602F49077374365D0C10705D0D105B7
:10C3600003D5616C41F001016164410705D5D9072E
:10C3700003D0616C41F002016164810705D5D907E2
:10C3800003D0616C41F004016164010707D502F03C
:10C390002001314303D0616C41F008016164616C9C
:10C3A00000293AD0800604D5900602D5204601F037
:10C3B0002FFA20684069616CC0F38010090700D42F
:10C3C00060B3204601F0FDF920684069400621D5A0
:10C3D0002068143050E8001F21F0400140E80012AE
:10C3E000002AF5D1E06BA8B16E490165E06BFEF75C
:10C3F0003DFB002811D0E06B016D01B0BDE8F040BD
:10C40000084783060FD593060DD52046BDE8F840B2
:10C4100001F0FEB92046FFF78DFFF8BD2046FFF77B
:10C4200089FF6564F8BD266B2023012E7DD1C606E9
:10C430007BD5D60679D508684868009048694FF0E2
:10C440000206400641D5E16B086840680004000C14
:10C45000E8D0A28D8242E5D9E085C869B0F5807F39
:10C460002DD020680C3050E8001F21F4807140E886
:10C470000012002AF5D12068143050E8001F21F086
:10C48000010140E80012002AF5D12068143050E87C
:10C49000001F21F0400140E80012002AF5D184F885
:10C4A0004230256320680C3050E8001F21F0100155
:10C4B00040E80012002AF5D1E06BFEF78EFA6663C1
:10C4C000A08DE18D401A81B22AE0A08DE18D401A45
:10C4D00081B2E08D0028A5D00029A3D022680C32BB
:10C4E00052E8000F20F4907042E80007002FF5D1C9
:10C4F0002068143050E8002F22F0010240E80027A5
:10C50000002FF5D184F84230256320680C3050E8C4
:10C51000002F22F0100240E80023002BF5D16663C3
:10C520002046FFF706FFF8BDFFE705062BD51506E9
:10C5300029D594F841002128F5D1A068B0F5805F95
:10C5400001D12069B0B1206A411C216221680078C4
:10C550004860E08C401E0004000CE084E3D12068B9
:10C56000C16821F08001C1602068C16841F04001CC
:10C57000C160D8E7206A0088C0F308004860206ADC
:10C58000801C2062E5E74006CDD55006CBD5CA68B1
:10C59000204622F04002CA6084F8413000F075F86D
:10C5A000C1E70000B3D7000870B5040004D094F8C8
:10C5B0004100002510B106E0012070BD84F8405014
:10C5C000204600F023F8242084F841002068C16848
:10C5D00021F40051C160204601F07CF92068016916
:10C5E00021F4904101612068416921F02A014161F3
:10C5F0002068C16841F40051C1606564202084F85E
:10C60000410084F842006563002070BD10B586B01B
:10C61000044614216846FCF7E1FA1849206888426C
:10C6200029D117480021026842F010020260006818
:10C6300000F01000059012481438026842F0010220
:10C640000260006800F0010005904FF4C0600090A7
:10C650000220CDE9010103200390072004906946E0
:10C660000848FEF735FA002211462520FEF7E0FCC7
:10C670002520FEF7CFFC06B010BD000000100140E1
:10C68000443802400000024070477047FEE7F0B5B2
:10C690000A680F2692FAA2F2B2FA82F303248AE021
:10C6A00001279F4015EA07027DD04D68012D01D07A
:10C6B000022D1BD18D68876892FAA2FCBCFA8CFC13
:10C6C0004FEA4C0C04FA0CFC27EA0C0792FAA2FC85
:10C6D000BCFA8CFC4FEA4C0C05FA0CF52F43876032
:10C6E000CD684768554397432F4347600F69D0F89B
:10C6F0000CC092FAA2F5B5FA85F54FEA450E04FA98
:10C700000EF52CEA050C92FAA2F5B5FA85F56D0046
:10C71000AF404CEA070CC0F80CC04D68022D33D175
:10C7200092FAA2F5B5FA85F5082D15D2D1F814C004
:10C73000056A92FAA2F7B7FA87F7BF0006FA07F779
:10C74000BD4392FAA2F7B7FA87F7BF000CFA07FCCD
:10C7500045EA0C05056217E0D1F814E0476A150AAE
:10C7600095FAA5FCBCFA8CFC4FEA8C0C06FA0CFC82
:10C7700095FAA5F5B5FA85F5AD0027EA0C070EFA8E
:10C7800005FE47EA0E0747624D68076892FAA2FC69
:10C79000BCFA8CFC4FEA4C0C04FA0CFE27EA0E079C
:10C7A00092FAA2F200E005E0B2FA82F2520095405D
:10C7B0002F4307605B1C0A681546DA407FF470AFB0
:10C7C0000020F0BD10B5044600F03CFB206000F0F6
:10C7D0000FFB606000F01AFBA060606800F024FBB3
:10C7E000E06010BD7FB50446C0680D460126C0F369
:10C7F0004030C0BBE9686868AA69084329691143E9
:10C800000843E16849F20C6291430843E060A8687C
:10C81000216921F44051014321616869616921F472
:10C820004071014361616846FFF7CCFF0F488442C5
:10C8300008D00F4884420DD00E4884420AD00E48DA
:10C84000844201D1039906E00C48844202D00C488E
:10C85000844208D1029931B12B6823B100262046C9
:10C86000AA6900F00FF804B0304670BD0010014016
:10C87000004400400048004000140140004C0040CB
:10C88000005000402DE9F04106461920A1FB0001AF
:10C890001F46002364243225B2F5004F27D0BB0F7A
:10C8A000BA00FBF791FD0146B0FBF4F06FF01802FF
:10C8B000504301EB800005EB0010B0FBF4F000F0FA
:10C8C000F002B1FBF4F002EB0012B1FBF4F06FF0F8
:10C8D0001803584301EB800005EB0010B0FBF4F0A7
:10C8E00000F00F00104480B2B060BDE8F081FA198A
:10C8F0005B41FBF769FD0146B0FBF4F00201B1FBBF
:10C90000F4F06FF01803584301EB800005EBC00012
:10C91000B0FBF4F000F0F80002EB4002B1FBF4F0E1
:10C92000584301EB800005EBC000B0FBF4F000F0D1
:10C930000700D7E72DE9F04387B014216846FCF7DC
:10C940004DF940480024016841F00401016001688C
:10C9500001F004010591016841F080010160016866
:10C9600001F080010591016841F01001016001684A
:10C9700001F010010591016841F0080101600168B2
:10C9800001F008010591016841F0010101600168B1
:10C9900001F001010591016841F0020101600068A8
:10C9A000294F00F002004FF48075059000222946BF
:10C9B0003846FEF792F9DFF89480EE010022314606
:10C9C0004046FEF78AF9DFF8889001223146484652
:10C9D000FEF783F900950125CDE9015469463846F3
:10C9E0000394FEF775F84FF4606000903801CDE9CC
:10C9F000010569463846FEF76BF80096CDE901540B
:10CA0000694640460394FEF763F80320CDE90240EF
:10CA1000CDE9006569464846FEF75AF800221146FE
:10CA20001720FEF705FB1720FEF7F4FA0022114647
:10CA30002820FEF7FDFA2820FEF7ECFA07B0BDE843
:10CA4000F08300003038024000100240000C024029
:10CA5000000002400D4810B50B4901600C494160CF
:10CA600000214FF480428160C0E90312416181617D
:10CA7000C1610162FEF73CF9002803D0BDE8104017
:10CA8000FDF7A9BF10BD0000005400403400002095
:10CA9000A08601000D4810B50B4901600C494160AA
:10CAA00000214FF480428160C0E90312416181613D
:10CAB000C1610162FEF71CF9002803D0BDE81040F7
:10CAC000FDF789BF10BD0000005C00408800002019
:10CAD000801A060030B587B014216846FCF77EF84E
:10CAE0001D4800241B490594C0E900147F21816082
:10CAF000FF21C0E9031444618461FEF71FFE08B101
:10CB0000FDF769FF09258DF8005010208DF8010010
:10CB10008DF802400394012269460F480494FEF701
:10CB2000C3FE08B1FDF757FF07208DF814008DF8FC
:10CB3000155029208DF8160024208DF817000122A9
:10CB400005A90548FEF764FE002801D0FDF743FF64
:10CB500007B030BD00280040DC000020104810B5B0
:10CB60000E4901604FF48271416000218160C16013
:10CB70004FF400720161C0E905121822C0E90721D3
:10CB8000416281620A21C162FEF70AFF002803D0D8
:10CB9000BDE81040FDF71FBF10BD0000003C004085
:10CBA000FC00002010B586B00024164800940194C3
:10CBB0000294039404944FF080410594016041F67F
:10CBC000FF01C0E90114C821C0E903148461FFF723
:10CBD00033FA08B1FDF7FFFE4FF48050009069462C
:10CBE0000848FFF79BFA08B1FDF7F5FE049404A985
:10CBF00004480594FFF7D8F9002801D0FDF7EBFEB3
:10CC000006B010BD5401002010B586B000241748AE
:10CC100000940194029403940494134905940160D0
:10CC200042F2D001C0E9011442F21071C0E90314CC
:10CC30008461FFF701FA08B1FDF7CDFE4FF4805093
:10CC4000009069460948FFF769FA08B1FDF7C3FE8D
:10CC5000049404A905480594FFF7A6F9002801D01B
:10CC6000FDF7B9FE06B010BD000400409C01002095
:10CC700010B586B0002417480094019402940394E0
:10CC8000049413490594016042F2D001C0E90114F3
:10CC90001149C0E903148461FFF7CEF908B1FDF72B
:10CCA0009AFE4FF48050009069460A48FFF736FA22
:10CCB00008B1FDF790FE049404A906480594FFF717
:10CCC00073F9002801D0FDF786FE06B010BD000004
:10CCD000000C0040E40100207F4F12000C4810B50A
:10CCE0000A4901604FF416514160002181600C2215
:10CCF000C160C0E904128161C161FFF755FC0028E1
:10CD000003D0BDE81040FDF766BE10BD0010014025
:10CD10002C02002010B58EB01C216846FBF75EFF88
:10CD2000182107A8FBF75AFF2948016841F02001A4
:10CD30000160006800F020000D902548143801685B
:10CD400041F0040101600068002400F004000D902F
:10CD5000C0200790022008900320CDE90904082094
:10CD6000CDE90B4007A91B48FFF791FC1A48006862
:10CD7000C0F30220011D072901D2002000E0C01EDF
:10CD800004FA00F10801154981F8000413498020D4
:10CD90003F39C1F800014FF41650CDE900040C20D2
:10CDA0000294CDE90340059406940D4C6946204653
:10CDB000FFF718FD206920F490402061606920F0A1
:10CDC0002A006061E06840F40050E0600EB010BDE1
:10CDD00044380240000802400CED00E047E000E06B
:10CDE00000140140FEE7FEF7E5FAFEE77047000099
:10CDF00004490968044A01F0F0010909515CC8407E
:10CE000070470000083802402EF9000804490968FC
:10CE1000044A01F4E05102EB91210978C8407047BF
:10CE2000083802403EF9000804490968044A01F440
:10CE3000604102EB51310978C84070470838024020
:10CE40003EF900080748006810F00C01064807D0BA
:10CE5000042904D0082903D1082000F009B80348A8
:10CE600070470000083802400024F40000127A00E5
:10CE700010B5104A04460020116811F480030E49D1
:10CE800003D0B3F5800F00D14910082C11D11068E0
:10CE900000F03F00B1FBF0F01168C1F38811484386
:10CEA0001168012201F4403102EB11414900B0FB4D
:10CEB000F1F010BD043802400024F400002102E02B
:10CEC0000A38C0B2491C0A28FAD2090740EA1160A0
:10CED000704700002DE9F041044600680025C16854
:10CEE000490618D4C16841F08001C160FDF7FAFE1F
:10CEF00006464FF47A78042707E000BFFDF7F2FEFC
:10CF0000801B404501D9677701252068C06840062D
:10CF100001D4002DF2D02846BDE8F08170B504465A
:10CF200000680025C16821F08001C1602068806828
:10CF3000800606D42046FEF717FD10B10420607766
:10CF40000125284670BD10B5028A406893B20A4692
:10CF50001946FDF7C2FE0020401C0A28FCDB10BD6C
:10CF600038B5054600F0DCF815A0002400680090F4
:10CF7000284600F0B5F9C8B100212846FFF7E3FFC5
:10CF8000642301226946284600F060F900284FF02A
:10CF90000101284611D0FFF7D6FFE9694FF47A70F6
:10CFA0004143284600F068F900B10124284600F00A
:10CFB0007DF900202873204638BDFFF7C4FFF5E750
:10CFC000600000003EB504463CA0002500680290C9
:10CFD00029462046FFF7B7FF64200090042301AAEA
:10CFE00002A9204600F03CF900284FF0010120463C
:10CFF0001AD0FFF7A8FF9DF8050020729DF80610D3
:10D00000E1729DF80710002261728C2827D015DC90
:10D01000372824D00BDC012821D004281FD01C285D
:10D020001DD020281AD11AE0FFF78DFF44E06228B6
:10D0300015D0852813D0892810D110E0BF280ED034
:10D0400006DC9D280BD0A12809D0AD2806D106E02A
:10D05000C22804D0C82802D0EF2800D0227211398B
:10D06000102921D2DFE801F0080A0D0F111315175E
:10D070001A2020202020201D022000E00420E06152
:10D0800014E00820FBE71020F9E72020F7E7402014
:10D09000F5E78020F3E74FF48070F0E74FF400707D
:10D0A000EDE74FF48060EAE76272E0690001A06199
:10D0B0000003000A0125606128463EBD9FFFFFFF77
:10D0C0002DE9F041984616460F4604004FF0000542
:10D0D00023D017B30EB3A07A01281ED020212046FA
:10D0E000FBF77CFDC4F81080C4E9007601212046DE
:10D0F000FFF729FF02E00120FDF7CAFCFDF7F2FD72
:10D100001428F8D3204600F0D1F830B12046FFF7BC
:10D1100059FF050001D00120A0722846BDE8F0812A
:10D1200010B5044602E000BFFDF7B2FC207B0028EA
:10D130004FF00100F8D1207310BD2DE9FC410C46E1
:10D1400000251F46904606462946FFF7FCFEF36978
:10D15000C4F30742C4F30721E0B2B3F5007F0ED356
:10D1600013238DF80030230E8DF801308DF8022046
:10D1700064238DF803108DF8040005220AE00323D0
:10D180008DF800308DF801208DF8021064238DF8A1
:10D19000030004226946304600F058F878B14FF495
:10D1A000FA633A464146304600F046F838B101216C
:10D1B0003046FFF7C8FE01252846BDE8FC81012165
:10D1C0003046FFF7C0FEF7E72DE9F0411C469046D8
:10D1D0000F460546069EFFF7A3FFC6F5807206EBD5
:10D1E0000721944200D91446234642462846FFF7B9
:10D1F000A4FF00212973BDE8F08100003EB505467B
:10D200000CA000240068019021462846FFF79BFEF1
:10D2100064200090022302AA01A9284600F020F809
:10D2200008B19DF8094001212846FFF78CFE2046F1
:10D230003EBD000005A5000010B5002492B20068B4
:10D24000FEF742FC00B90124204610BD10B50024B1
:10D2500092B20068FEF7E3FC00B90124204610BD3D
:10D2600038B50024049D00959BB20068FEF78EFD42
:10D2700000B90124204638BD2DE9F0410E4607468D
:10D280000025FDF72FFD04460120FDF701FCFDF709
:10D2900029FD001BB04205D23846FFF7AFFFC0079B
:10D2A000F2D101252846BDE8F081000038B50546D9
:10D2B0000AA001240068009000212846FFF743FEE1
:10D2C0006423012269462846FFF7C0FF00B9002405
:10D2D00001212846FFF737FE204638BD0400000034
:10D2E00038B505460AA001240068009000212846B0
:10D2F000FFF729FE6423012269462846FFF7A6FFAF
:10D3000000B9002401212846FFF71DFE204638BD44
:10D31000060000002DE9FC4780460E460A9DD8F81D
:10D32000141000271C469246C5F58070B1424ED9B4
:10D33000FF2D4CD8844200D9044605EB062940460F
:10D34000FFF7CEFFF0B300214046FFF7FCFD05EBF1
:10D350000622D8F81C30C2F30741C2F30720D2B22C
:10D36000B3F5007F0FD312238DF800304FEA196315
:10D370008DF801308DF802108DF8042064238DF8AB
:10D38000030005220AE002238DF800308DF8011019
:10D390008DF802008DF8032064230422694640467C
:10D3A000FFF754FFC8B14FF47A7322465146404606
:10D3B000FFF74CFF88B101214046FFF7C4FD64210F
:10D3C000404600E003E0FFF757FF00B10127404669
:10D3D000FFF76CFF3846BDE8FC8701214046FFF7A8
:10D3E000B2FDF4E72DE9F8431E4617468846044689
:10D3F000089DFFF795FE33463A4641462046009584
:10D40000FFF788FF00212173BDE8F883F8B50446D3
:10D4100040684FF48273984221D1A0684FF4806530
:10D42000B0F5004F01D0A8420AD12068066826F066
:10D43000400606606068984211D1A068A8420ED0EC
:10D4400000920B4600228021204600F043F800287D
:10D4500004D0606D40F0200060650320F8BD0092AC
:10D460000B4600220121EFE7F8B515460E460B46A4
:10D47000009204460122022100F02CF8A0B91348C2
:10D4800013490068B0FBF1F04FF47A714843009003
:10D490006068B0F5827F0DD133460022802120469E
:10D4A000009500F017F870B1606D40F020006065E5
:10D4B0000320F8BD009830B1401E009020688068BD
:10D4C000C0430006F6D50020F8BD00000C00002087
:10D4D00000366E012DE9F8431E4691468846044603
:10D4E000089DFDF7FFFB401B351AFDF7FBFB0746C8
:10D4F00025480068C0F3CB30684338E0701C37D053
:10D50000FDF7F0FBC01BA84203D215B1009860B331
:10D510002CE02068416821F0E00141606068B0F5CE
:10D52000827F0BD1A068B0F5004F02D0B0F5806FBC
:10D5300004D12068016821F040010160A06AB0F5C3
:10D54000005F09D12068016821F400510160206862
:10D55000016841F400510160012084F8510000206D
:10D5600084F850000320BDE8F8830025401E009099
:10D570002068816838EA010004D000214945BDD106
:10D580000020F0E70121F9E70C0000207047FDF7CB
:10D59000E7BC000030B593B030216846FBF71EFBB6
:10D5A00014210CA8FBF71AFB1F480025016841F065
:10D5B00080510160006800F0805011901B480168A4
:10D5C00041F4804101600068022400F48040119021
:10D5D0000D2000904FF48030019001200290CDE9A1
:10D5E00005048005079008AA0420A82182E81300FA
:10D5F0000B906846FDF7ECFE08B172B6FEE70CA989
:10D600000F2081E831004FF4A0500F904FF480506C
:10D61000109005210CA8FDF7DDFD08B172B6FEE7FC
:10D62000FDF772FE13B030BD40380240007000407C
:10D630000448016841F470010160024902488039E0
:10D640000860704788ED00E0008000080148FEF7A0
:10D65000D4BD0000540100200148FEF7CEBD0000FB
:10D660009C0100200148FEF7C8BD0000E401002035
:10D67000F0B50268294C2A4D2A4E2B4F2B4B4FF008
:10D68000804CA04209D0604507D0A84205D0B042E6
:10D6900003D0B84201D0984204D122F0700E4A68FB
:10D6A00042EA0E02A0421BD0604519D0A84217D012
:10D6B000B04215D0B84213D0984211D01C4DA842A8
:10D6C0000ED01C4DA8420BD01B4DA84208D01B4DBC
:10D6D000A84205D01A4DA84202D01A4DA84203D143
:10D6E00022F44075CA682A434D6922F080022A4319
:10D6F00002608A68C2620A688262A04201D09842CF
:10D7000001D109690163012141610169C90703D0A0
:10D71000016921F001010161F0BD0000000001403C
:10D720000004004000080040000C004000040140DC
:10D730000040014000440140004801400018004002
:10D74000001C00400020004010B5846842EA03221B
:10D7500024F47F440A432243826010BD826822F091
:10D7600070020A4342F007018160704710B5036AF6
:10D77000046A24F001040462846924F0F00444EA99
:10D78000021423F00A020A438461026210BD10B53C
:10D79000036A046A24F010040462846923F0A0037D
:10D7A00024F4704444EA023243EA011182610162C6
:10D7B00010BD10B5806B0021C185C184FEF7BAFD94
:10D7C00010BD01680C3151E8002F22F4907241E83D
:10D7D0000023002BF5D10168143151E8002F22F00D
:10D7E000010241E80023002BF5D1016B012909D189
:10D7F00001680C3151E8002F22F0100241E80023AB
:10D80000002BF5D1202180F84210002101637047E0
:10D8100008B590F84210222901D0022008BD826884
:10D820004FF480539A4201D1016921B1816A9A4231
:10D830001BD04AB10AE00268816A5268C2F308024A
:10D840000A80816A891C08E0026972B10268526824
:10D8500002F07F020A70816A491C8162C18D491EF3
:10D860000904090CC18503D01BE002685268F1E786
:10D870000168CA6822F02002CA600168CA6822F4FE
:10D880008072CA6001684A6922F001024A6120215F
:10D8900080F8421000214163026B012A03D0FEF799
:10D8A000F3FE002008BD016301680C3151E8002F30
:10D8B00022F0100241E80023002BF5D101680A682C
:10D8C000D20602D50A6849680091818DFEF731FDC4
:10D8D000E7E7000070B5044600680169E26821F4DA
:10D8E0004051114301612169A068E26908436169FF
:10D8F000114308432168CA6849F20C639A43024302
:10D90000CA6020684169A26921F4407111434161F4
:10D9100031492068884202D03049884202D1FDF75F
:10D9200009FD01E0FDF7F6FCE269002319216425F9
:10D930003226B2F5004F626828D0A0FB0101930F98
:10D940009200FAF741FD0146B0FBF5F06FF01802C6
:10D95000504301EB800006EB0010B0FBF5F000F047
:10D96000F002B1FBF5F002EB0012B1FBF5F06FF045
:10D970001803584301EB800006EB0010B0FBF5F0F4
:10D9800000F00F0021681044886070BDA0FB010109
:10D9900092185B41FAF718FD0146B0FBF5F0020161
:10D9A000B1FBF5F06FF01803584301EB800006EB74
:10D9B000C000B0FBF5F000F0F80002EB4002B1FB54
:10D9C000F5F0584301EB800006EBC000B0FBF5F02A
:10D9D00000F00700D6E700000010014000140140ED
:10D9E0000148FEF7A9BC00002C02002006490A6885
:10D9F000C2F3C012002AFAD048600868C0F3801051
:10DA00000028FAD0704700000010014000B5030064
:10DA100006D002E0FFF7EAFF5B1C18780028F9D176
:10DA200000BD0000014800F072B900007C02002037
:10DA3000FEE703B401984100009850EAC12018BFE6
:10DA400004204A0D18BF40F0010040F2FF72B2EB13
:10DA5000515F08BF40F00200012808BF052002B056
:10DA600070470907090E002804DB00F1E02080F868
:10DA70000014704700F00F0000F1E02080F8141D42
:10DA8000704730380A2801D20120704700207047C3
:10DA900070B5044690F848040D4609282CD0084675
:10DAA000FBF716F8401C00F029F894F848140028F9
:10DAB00004EB8101C1F80C041DD02846FBF708F8DF
:10DAC000024694F84804294604EB8000D0F80C0480
:10DAD000FBF7ABF82846FAF7FBFF94F8481400224E
