:020000040800F2
:108000008037002025830008451501080DFC000875
:1080100041150108E9B200088D4601080000000082
:1080200000000000000000000000000035280108EA
:10803000EDB200080000000031160108C12B010854
:108040003F8300083F8300083F8300083F83000808
:108050003F8300083F8300083F8300083F830008F8
:108060003F8300083F8300083F8300083F830008E8
:108070003F8300083F8300083F8300083F830008D8
:108080003F8300083F8300083F8300083F830008C8
:108090003F8300083F8300083F83000829B300089E
:1080A0003F8300083F8300083F8300083F830008A8
:1080B000BD2C0108CD2C01083F8300083F83000838
:1080C0003F8300083F8300083F8300083F83000888
:1080D0003F830008ED4501083F8300083F83000807
:1080E00015B300083F8300083F8300083F83000862
:1080F0003F8300083F8300083F8300083F83000858
:108100003F8300083F830008B52D01083F83000826
:108110003F8300083F8300083F8300083F83000837
:108120003F8300083F8300083F8300083F83000827
:108130003F8300083F8300083F8300083F83000817
:108140003F8300083F8300083F8300083F83000807
:108150003F8300083F8300083F83000879460108F9
:108160003F8300083F8300083F8300083F830008E7
:108170003F8300083F8300083F83000800000000A1
:108180003F8300083F83000800F002F800F0BAF8CF
:108190000AA090E8000C82448344AAF10107DA4562
:1081A00001D100F0AFF8AFF2090EBAE80F0013F0FA
:1081B000010F18BFFB1A43F001031847F42A01000E
:1081C000142B01000A4410F8013B13F0030408BF0C
:1081D00010F8014B1D1108BF10F8015B641E05D09B
:1081E00010F8016B641E01F8016BF9D1002D15D058
:1081F00010F8014B03F00C030C2BA1EB04040ABF95
:1082000010F8013BA4EB8314A4EB032405F1010354
:1082100014F8016B5B1E01F8016BF9D5914238BF70
:1082200010F8013BD1D3704700230024002500261D
:10823000103A28BF78C1FBD8520728BF30C148BFC9
:108240000B6070476E2900F0DD84702900F02786EE
:10825000662911F00987652911F00687672911F051
:108260000387612911F0028703681B0A28BF41F0C8
:108270008001692900F08A84642900F087847529C7
:1082800000F084846F2900F0B585782900F0F3852B
:10829000E92900F04F85E42900F04C85F52900F02C
:1082A0004985EF2900F0B285F82900F0F2850368CE
:1082B000DB0928BF41F08001632901F0EF867329B3
:1082C00001F0F486E32901F0FF86F32901F0048729
:1082D000002070471FB511F0B2FE9DE8030000F0CA
:1082E000BDFB01F07FFA04000020002111F06EF8C0
:1082F000401C60600020002111F07EF8E0601FBD8E
:1083000010B510BD02F0A9FB1146FFF7E3FF0EF018
:10831000AFFC02F08DFC03B4FFF7F2FF03BC02F0E8
:10832000BDFC00000948804709480047FEE7FEE71A
:10833000FEE7FEE7FEE7FEE7FEE7FEE7FEE7FEE715
:1083400004480549054A064B70470000912C010876
:1083500089810008802300208037002080270020AA
:108360008027002070B5064600F058FB056806F12E
:108370000B0020F00704B4429CBF002070BD2B46C8
:108380006A68BAB11068A04210D304F108018842AB
:108390003CBF5068586007D351681019416011689C
:1083A000091B016058601460101D70BD13465268AF
:1083B000002AE7D12146284600F03CFB0028DED108
:1083C00070BD70B50446051F00F028FB0068002C46
:1083D00014BF446870BD002C18BFAC423CBF20469F
:1083E0006468F8D301680A18AA4218BF456003D12F
:1083F0002A6805461144016028684119A1421CBF42
:108400006C6070BD6168696021680844286070BD57
:1084100053EA020C00F069802DE9F04B4FF00006A2
:10842000002B1FBFB3FA83F503FA05F424FA05F60F
:108430005E4012BF1643B2FA82F502FA05F4C5F1A6
:1084400020051EBF22FA05FC44EA0C04203556EA3A
:10845000044C4FEA144418BF641C4FF000084FF05E
:108460000009904271EB030C39D3002919BFB1FA0E
:1084700081F701FA07F6B0FA80F700FA07F6C7F1BC
:1084800020071EBF20FA07FC46EA0C062037B6FB81
:10849000F4FCA7EB0507103F07F01F0BCBF12006FC
:1084A0002CFA06F60CFA0BFB44BFB3460026202F2D
:1084B000A4BF5E464FF0000B5BEA060C08BF4FF00E
:1084C000010B19EB0B0948EB0608ABFB027C06FB22
:1084D00002CC0BFB03CCC01B71EB0C01C1E70B46BC
:1084E000024641464846BDE8F08B13B5084318BF25
:1084F0004FF0FF300146AFF30080BDE81C407047ED
:108500000FB41CB5084B06AA7B4469460090059839
:1085100000F091FB04460020694600F09FFB2046D6
:108520001CBC5DF814FB0000510700000FB47CB5C3
:108530000C0009AA009001D02044401E084B7B4447
:1085400069460190089800F076FB05461CB10020B2
:10855000694600F083FB28467CBC5DF814FB0000F4
:10856000250700007CB51D4616460C00009001D082
:108570002044401E074B7B442A4669460190304602
:1085800000F059FB05461CB10020694600F066FB6F
:1085900028467CBDED0600000FB400B58DB010A9D3
:1085A000099000910B904FF0FF300A9000200C9042
:1085B000064878440690064878446A4607900F9922
:1085C00009A800F003FF0DB05DF814FB370E0000A2
:1085D0004F0E00002DE9F04791460F4680460446B5
:1085E000002614F8015B2DB100F010FA0068405D20
:1085F000C007F6D12B2D02D02D2D18D0641E4A466F
:108600003946204600F012FF27B13968A14201D156
:10861000C7F800804FF0020471050BD540420028D6
:1086200003DD00F0FFF90460A007BDE8F08746F421
:108630008066E4E70028F8DA00F0F4F904606FF0EF
:108640000040F2E7002800DA40427047014A01F09A
:10865000A3B8000000000020401ECAB210F8011F9D
:108660008A4202D00029F9D10020704730B5054672
:108670000B462A4613F8014B12F8010B08B1A04231
:10868000F8D01CB1002802D06D1CF1E7284630BD9F
:1086900040EA0103024630B59B0710D14FF0013488
:1086A00000E008C208C91D1B9D4315EAC41FF8D08D
:1086B00013F0FF0102F8011B0DD01B0AF8E711F8B7
:1086C000013B002B02F8013B05D011F8013B002BC8
:1086D00002F8013BF3D130BD10B5431C02E010F8A5
:1086E000011B71B18107FAD14FF0013202C88C1A17
:1086F0008C4314EAC211F9D0C01A0A0603D0C01E76
:1087000010BDC01A10BD0A0401D0801E10BD0902A0
:10871000FCD0401E10BD40EA010370B59B072ED16E
:108720004FF00136042A2AD308C810C99D1B9D4367
:10873000121F15EAC61517D0D8B2E1B2401A50EA96
:10874000056110D198B2A1B2401A50EA05410AD190
:1087500023F07F4024F07F41401A50EA052102D1E6
:10876000180EA0EB146070BDA342DBD018BA21BA7A
:10877000884201D9012070BD4FF0FF3070BD0AB9A9
:10878000002070BD10F8013B11F8014B63B1A3420A
:108790000AD1521E08D010F8013B11F8014B1BB151
:1087A000A34201D1521EEDD1181B70BD032A40F225
:1087B000308010F0030C00F0158011F8013BBCF183
:1087C000020F624498BF11F801CB00F8013B38BF9B
:1087D00011F8013BA2F1040298BF00F801CB38BFA9
:1087E00000F8013B11F0030300F02580083AC0F0C7
:1087F000088051F8043B083A51F804CBA0E808106F
:10880000F5E7121D5CBF51F8043B40F8043BAFF3A1
:108810000080D20724BF11F8013B11F801CB48BFFB
:1088200011F8012B24BF00F8013B00F801CB48BF31
:1088300000F8012B704710B5203AC0F00B80B1E86A
:108840001850A0E81850B1E81850A0E81850203A85
:10885000BFF4F5AF5FEA027C24BFB1E81850A0E88E
:10886000185044BF18C918C0BDE810405FEA827CA8
:1088700024BF51F8043B40F8043B08BF7047D207BF
:1088800028BF31F8023B48BF11F8012B28BF20F860
:10889000023B48BF00F8012B70474FF0000204294B
:1088A000C0F0128010F0030C00F01B80CCF1040C1F
:1088B000BCF1020F18BF00F8012BA8BF20F8022B53
:1088C000A1EB0C0100F00DB85FEAC17C24BF00F8F9
:1088D000012B00F8012B48BF00F8012B70474FF027
:1088E000000200B5134694469646203922BFA0E800
:1088F0000C50A0E80C50B1F12001BFF4F7AF09070C
:1089000028BFA0E80C5048BF0CC05DF804EB8900FC
:1089100028BF40F8042B08BF704748BF20F8022B3F
:1089200011F0804F18BF00F8012B704710B50446B6
:1089300010F0030F08BF11F0030F40F015804FF047
:10894000013E121FC0F20E8051F8043BA3EB0E0C47
:108950002CEA030C1CEACE1C08BF40F8043BF0D004
:10896000A1F1040102F10402521E08DB11F8013BDF
:1089700000F8013B002BF7D11146FFF78EFF204690
:1089800010BD00000000000030B44FF0013C50F872
:10899000042B51F8043BCCFA52F4D51A20D1FCB97F
:1089A00050F8042B51F8043BCCFA52F4D51A17D1E5
:1089B000B4B950F8042B51F8043BCCFA52F4D51A50
:1089C0000ED16CB950F8042B51F8043BCCFA52F498
:1089D000D51A05D1002CDAD030BC4FF0000070471A
:1089E00029BAB1FA81F111F01801D1F120008440C7
:1089F000F2D1CA40CB4012F0FF0213F0FF0330BCAB
:108A0000D01A7047704770477047000010B500F0EB
:108A1000E9FE001D10BD00BFB50901000048704708
:108A2000A007002000487047980700207047704753
:108A30007047704738B504460A4600206946AFF3D0
:108A40000080002808BF38BD02460099204600F08B
:108A5000CDFE012038BD012001F0D9BFF8B5AFF33C
:108A60000080054600200C46102000BF0646A819CD
:108A7000A0420DD9324669460020AFF300800700BE
:108A800008BF01F0C4FF0098A04218BF0546C419F2
:108A9000FFF7C4FF05600746F01D20F007004619E8
:108AA000284600F00AF8B44208BFF8BDA21B3146C0
:108AB0003868BDE8F84000F099BE00210160C0E9C7
:108AC000011070471020704770B504468569006832
:108AD000C10601D5302600E02026C00707D070BDB2
:108AE000D4E9012130469047206A401C20626D1E67
:108AF000F6D570BD70B5044685690078C00707D10A
:108B000070BDD4E9012120209047206A401C2062DA
:108B10006D1EF6D570BD09684A0501D540B2704793
:108B2000C905FCD500B2704709684A0501D5C0B235
:108B30007047C905FCD580B2704770B50C46054634
:108B4000012A05D02878800600D5EA69002302E0D2
:108B5000012305E05B1C934202D2E05C0028F9D1BE
:108B6000A869E618C01AA861286A1844286228462D
:108B7000FFF7AAFF04E0D5E9012114F8010B9047A3
:108B8000B442F8D32846FFF7B5FF70BD2DE9F04198
:108B90000646002410687529314616A510D0FFF747
:108BA000BAFF002802DA404213A507E031688A07BD
:108BB00001D512A502E0490704D511A5012401E061
:108BC000FFF7B2FF00210A2206F1240709E0B0FBFB
:108BD000F2FCB0FBF2F302FB1C0030307854184674
:108BE000491C0028F3D123462A463046BDE8F0410F
:108BF00000F064BE000000002D0000002B0000000B
:108C00002000000011680268006A530501D5087051
:108C10000AE0D30501D5088006E0130603D5C21784
:108C2000C1E9000200E008600120704701694A1CA8
:108C300002610878704700B58FB0CDE9013100219D
:108C4000059105497944CDE903101146684600F0C5
:108C500031F90FB000BD0000E5FFFFFF0A6802F820
:108C6000010B0A607047D1E900239A4202D2531CDB
:108C70000B601070704700002DE9FF5F15468A46B3
:108C80000446DFF8AC80F8440027D8E900103E46DF
:108C9000CDE9001010E03AF816106A4602A801F07B
:108CA00092FE411C07D02178890603D5E269391864
:108CB00091420DD80744761C2078800602D5E069E1
:108CC000B84205DDAE42E6DB3AF816000028E2D1F4
:108CD000A069C01BA0612046FFF7F6FED8E900108E
:108CE000CDE90010002017E03AF818106A4602A8F3
:108CF00001F069FEB0F1FF3F81460BD000250DF178
:108D0000080B05E0D4E901211BF8050090476D1C14
:108D10004D45F7D308F10100B0428046E4DB206AFC
:108D2000384420622046FFF7E5FEBDE8FF9F0000C3
:108D3000E21401002DE9F0418046D21D22F0070225
:108D40000025D2E90002F52915A614D0011E72F102
:108D5000000106DA0023D0EB030063EB020211A648
:108D600008E0D8F800108B0701D50FA602E04907EC
:108D700001D50EA601251146002408F1240704E0C0
:108D800000F04EFD30323A55641C50EA0102F7D132
:108D90002B46324621464046BDE8F04100F08EBDEC
:108DA000000000002D0000002B000000200000004B
:108DB00030B4002100F1240408E002F00705D208D5
:108DC000303542EA4372DB086554491C52EA030518
:108DD000F3D10468002310A2250708D504F020046D
:108DE0000C4304D0C46901230CA2641EC46130BCCE
:108DF00000F064BD10B5044621461068FFF794FEEC
:108E000002462046BDE810400023D1E7D21D22F0E3
:108E10000701D1E90023CBE700000000300000008B
:108E2000F0B40D460188090502D5214C7C4402E0CE
:108E30001F4C7C440E34002100F1240608E002F0AF
:108E40000F071209E75D42EA03721B097754491CB8
:108E500052EA0307F3D102780023120704D5702DDC
:108E600006D009B1022311342246F0BC00F026BD21
:108E700001231034F8E770B504460D46214610680A
:108E8000FFF752FE024629462046BDE87040002307
:108E9000C6E7D21D22F00703D3E90023C0E7036829
:108EA000126843F0200303600823C3610023B7E77F
:108EB000441301002DE9F05F894604464FF0000A93
:108EC000DFF874B1FB44C0F820A02046E168884771
:108ED000002874D0252806D0D4E901219047206AC3
:108EE000401C2062F1E700265F462046E168884783
:108EF0002028054607DB312D05D2781910F8200C03
:108F000008B10643F1E7B00701D526F00406C4F81E
:108F10001CA00027C4F818A02A2D09D0284610F05C
:108F200006FA38B304EB8708303DC8F8185019E04A
:108F300059F8041B204604EB87029161E1688847D9
:108F4000012F054618D1E069002820DA26F0200616
:108F50001DE0D8F8180000EB800005EB4000303829
:108F6000C8F818002046E1688847054610F0DFF988
:108F70000028EED1012F0AD02E2D08D12046E1681D
:108F800088477F1C0546022F46F02006C4DBA069F7
:108F9000002803DA404246F00106A061F00701D044
:108FA00026F010066C2D0BD0682D09D04C2D39D031
:108FB0006A2D35D0742D35D07A2D33D016E038E0B7
:108FC000E1682F4620468847B842054609D16C2FF4
:108FD00026D04FF48060E168064320468847054666
:108FE00004E06C2F1AD04FF4807006430DB3A5F146
:108FF0004100192802D8203546F400664A46294621
:10900000204626604E46FFF71DF980B101280BD09F
:10901000F61D26F0070000F1080956E74020E4E7B6
:109020008020D8E70020D6E706F104094DE728465E
:1090300052E7206ABDE8F09FD41201002DE9FF4FEE
:109040001C4691464FF0FF3581B000218A46884684
:10905000D4E90167A16902986D1C8847216A83469B
:1090600088470028F6D1BBF1FF3F0CD0002F26F433
:10907000C0661ADD700615D5BBF12B0F0AD0BBF107
:109080002D0F0FD104E04FF0FF3005B0BDE8F08F99
:1090900046F48066A16902986D1C88477F1E83464E
:1090A000002F02DDBBF1300F03D0B9F1000F2AD041
:1090B00025E0A1696D1C02987F1E46F40076884762
:1090C000002F834605DDBBF1780F06D0BBF1580FAA
:1090D00003D0B9F1000F10D011E0B9F1000F02D0A8
:1090E000B9F1100F0BD1A1696D1C02987F1E26F4F7
:1090F000007688478346102000E0082081464FEA2A
:10910000E970009017E00A20F8E74346AAFB092817
:10911000DDF800C07F1E03FB098046F4007605F1F0
:1091200001050AFB0C0112EB0B0A029841EBEB78EC
:10913000A16988478346002F06DD4946584600F05E
:10914000CFFF5FEA000BE0D5E16902988847B005E0
:1091500002D46FF0010098E7F00718D1700610D51F
:109160005146700505D50023D1EB030163EB0802DE
:1091700000E042462068031D23600068C0E9001239
:1091800005E02068011D21600068C0E900A82846AC
:109190007BE72DE9FF5F1D464FF0FF3B91464FF007
:1091A00000085F46D5E90146A96901987F1C8847F8
:1091B000296A824688470028F6D1BAF1FF3F0CD0D1
:1091C000002E24F4C06419DD600614D5BAF12B0F0B
:1091D00009D0BAF12D0F0ED103E0584604B0BDE816
:1091E000F09F44F48064A96901987F1C8847761E2B
:1091F0008246002E02DDBAF1300F03D0B9F1000F24
:1092000026D032E0A969761E01987F1C44F40074D0
:109210008847002E824605DDBAF1780F06D0BAF1F4
:10922000580F03D0B9F1000F10D01EE0B9F1000FB4
:1092300002D0B9F1100F18D1A969761E01987F1CD0
:1092400024F4007488478246102002E0082000E0E1
:109250000A20814609E0A96908FB0908761E0198E1
:109260007F1C44F4007488478246002E05DD494681
:10927000504600F035FF0028EDDAE969019888478B
:10928000A00502D46FF00100A8E7E00725D1600631
:1092900013D5600502D5C8F1000000E040462968FA
:1092A0000A1D2A600968220501D5087015E0220709
:1092B00001D5088011E008600FE02868011D2960D1
:1092C0000068210502D580F8008006E0210702D55C
:1092D000A0F8008001E0C0F8008038467EE72DE964
:1092E000FF5F4FF000089946144646469169D2E95F
:1092F00001A7DDF838B001988847054659EA0B0008
:1093000005D009E0A1690198761C88470546216AC5
:10931000284688470028F5D1681C03D05FEACA7048
:1093200005D015E04FF0FF3004B0BDE8F09F206895
:10933000011D2160D0F800800AE05FEACA7001D107
:1093400008F8015BA169761C01987F1E88470546D5
:10935000002F1ADD681C18D0B9F1000F0DD0E817E6
:1093600005EBD060421120F01F0059F822102A1A94
:10937000012090400142E0D107E0BBF1000FDCD1B9
:109380002846216A88470028D7D0E1690198884794
:10939000BBF1000F07D1002E05DD5FEACA7002D1D4
:1093A000002188F80010A068B84203DDBBF1000F6F
:1093B00003D017B16FF00100B6E73046B4E7000004
:1093C000026811441378016018467047D16005495E
:1093D00079445161044979441162002111611146B7
:1093E00000F08CBEEDFFFFFFD1040000426842B1E7
:1093F000016811F8013B23B1521EC0E90012184662
:1094000070470121C160881E704742685AB1C36825
:10941000016843B983688B4205D0491E521CC0E9DC
:109420000012002070474FF0FF3070472DE9F05FC9
:10943000824615468B4600270AF10104B94600789A
:10944000302801D09DB113E014F8010B01277828D2
:1094500003D0582801D045B10AE00DB1102D07D135
:10946000002714F8010B102502E0082500E00A256A
:109470000026B0460EE005FB080005FB06F10127BB
:109480001FFA80F801EB1046B6F5803F00D3B946CD
:1094900014F8010B294600F023FE0028EBDABBF19B
:1094A000000F05D00FB1641E00E05446CBF8004019
:1094B000B9F1000F06D0FFF7B5FA02210160C81E0E
:1094C000BDE8F09F48EA0640FAE72DE9FF4F4FF06C
:1094D00000089A461446C146464683B0D2E901B711
:1094E000CDF80080CDF804809169049888471099E0
:1094F00005465AEA010005D009E0A1690498761CE6
:1095000088470546216A284688470028F5D1681C07
:1095100003D05FEACB7005D02AE04FF0FF3007B0F0
:10952000BDE8F08F2068011D2160D0F800801FE0A9
:1095300002A86A46E9B201F026FA411C07D0801C55
:1095400009D04FF000095FEACB7007D00AE0E1696B
:10955000049888473EE04FF0010904E0BDF8081088
:1095600028F8021B7F1EA1690498761C88470546CF
:10957000002F1ADD681C18D0BAF1000F0DD0E817C3
:1095800005EBD060421120F01F005AF822102A1A71
:10959000012090400142CBD107E010980028C7D1AC
:1095A0002846216A88470028C2D0E1690498884784
:1095B000B9F1000F0ED1109830B9002E04DD5FEA2A
:1095C000CB7001D1A8F80000A068B84202DD109865
:1095D00018B117B16FF00100A1E730469FE72DE900
:1095E000FF4F4FF000089B461446454683B0D2E932
:1095F0000196CDF80080CDF804809169DDF848A08F
:109600000498884707465BEA0A0005D009E0A1698B
:1096100004986D1C88470746216A38468847002809
:10962000F5D1781C03D05FEAC97005D01BE04FF07C
:10963000FF3007B0BDE8F08F2068011D2160D0F831
:10964000008010E05FEAC97007D16A464046B9B2AF
:1096500001F0B9F9411C31D08044A1696D1C049816
:10966000761E88470746002E14DD781C12D0BBF109
:10967000000007D03B46DDE9101201F075F9002823
:10968000E0D107E0BAF1000FDCD13846216A884703
:109690000028D7D0E16904988847BAF1000F06D1B5
:1096A000002D04DD5FEAC97001D188F80000A068D0
:1096B000B04203DDBAF1000F03D016B16FF0010024
:1096C000B7E72846B5E72DE9FF5F9B46144600271C
:1096D0003D469169D2E90196DDF840A0019888479E
:1096E00080465BEA0A0005D009E0A16901986D1C7B
:1096F00088478046216A404688470028F5D1B8F15E
:10970000FF3F03D05FEAC97005D014E04FF0FF308F
:1097100004B0BDE8F09F2068011D216007680AE0E1
:109720005FEAC97001D127F8028BA1696D1C01980D
:10973000761E88478046002E15DDB8F1FF3F12D017
:10974000BBF1000007D04346DDE90E1201F00CF931
:109750000028E5D107E0BAF1000FE1D14046216AC7
:1097600088470028DCD0E16901988847BAF1000FEA
:1097700005D1002D03DD5FEAC97000D13880A068F3
:10978000B04203DDBAF1000F03D016B16FF0010053
:10979000BEE72846BCE700002DE9F04115460E461D
:1097A000040002D12C6804B90BA4204601F046F94C
:1097B0000444207870B127463146384601F02EF92E
:1097C0000444207810B1002004F8010B38462C60C6
:1097D000BDE8F0810027F9E700000000004870476D
:1097E0009807002000487047B807002003464068EB
:1097F0008C46002818BF88423CBF03464068F8D317
:1098000018681844884207D00CF1030020F00700C4
:10981000001D411A521A0146081D0A60FEF7D1BD0B
:1098200030B5B0F10A0271F100034FEA900E4EEA32
:10983000817EB0EB0E0061EB91014FEA101E4EEA03
:10984000017E10EB0E0041EB11114FEA102E4EEA93
:10985000016E10EB0E0041EB11214FEA104E4EEA63
:10986000014E10EB0E0041EB1141401841F1000197
:109870004FEAD00040EA41704FEAD1014FEA81043B
:1098800044EA907410EB800544EB01046D1944EB3D
:109890000404521BA3414FF0000348BF0A3200D515
:1098A00030BD401C41F1000130BD10B50446FFF74A
:1098B000ADF80068005D00F0010010BD2DE9F04733
:1098C0000D4699469246044600F124080168880630
:1098D00004D5E06921F01001216000E00120A842D8
:1098E00001DD471B00E00027A1697A1902EB09009E
:1098F000081AA0612078C00602D42046FFF7E4F8D9
:10990000002608E0D4E901211AF806009047206AF1
:10991000401C761C20624E45F4DB2078C0060AD538
:109920002046FFF7D1F806E0D4E901213020904726
:10993000206A401C2062381EA7F10107F4DC07E012
:10994000D4E9012118F805009047206A401C2062E4
:10995000281EA5F10105F3DC2046FFF7CBF820789F
:10996000000602D50220BDE8F0870120FBE72DE9C3
:10997000FF4F0C461E464FF0FF378BB0D2E9000177
:10998000DDF860800A908A46C1F30A5505B93D4664
:10999000002108464FF00000BAF1000F00F440002B
:1099A00005DA00EB80004FF4400101EA50004FEA75
:1099B0009059B9F1010F00DDB9460A9850EA4A0002
:1099C0000ED044F61050A5F2FF3545432F14B8F1E0
:1099D000000F1ED07542291E1EDDC9F100021CE0D9
:1099E000B8F1010F4FF0000001D0302103E0F24345
:1099F00005E02154401CB042FBDB30460022002130
:109A000021540B99C1F80880C1E900200FB0BDE8CE
:109A1000F08FBD1B6D1CDEE74A4600DA694206A8DE
:109A200001F094F806AB93E8070003AB83E8070066
:109A300050460A990EF018FF8DE80700A0F5005077
:109A40001F3800900398002D0ADD42F21F014A469C
:109A50000844002303A9039068460FF0C3F909E006
:109A6000A0F500504A461F38002303A9039068461A
:109A70000FF0E2F98DE807000004000C03D04FF06E
:109A8000FF30410800E01046B8F1000F03D000227B
:109A9000009215461EE0751E05D4FFF7C1FE303258
:109AA00062556D1EF9D5B3460122084302D000224B
:109AB0007F1C04E02078302801D100227F1E002A7C
:109AC000099784D01DE0112D07DAFFF7A9FE303287
:109AD00062556D1C50EA0102F5D1084302D000988E
:109AE000C8B10EE00021681E05E0235C625C63548F
:109AF0002254401E491C8142F7DBAB46A81B401E86
:109B00000990002004F80B000B98099AC0F808800F
:109B1000C0E9002B7AE711264FF0000857E72DE93E
:109B2000F04F88460446D21D22F0070191B0D1E9DA
:109B30000001CDE90A010FF0CBFA02460B98C00FE5
:109B400001D02D2007E02068810701D52B2002E0FD
:109B5000202101EAC000032A099001D0072A05DB71
:109B600003464146204600F0B1FF0BE12078800615
:109B700001D5E06900E00620B8F1650F814606D006
:109B8000B8F1660F18D0B8F1670F70D131E000203E
:109B9000B9F1110F009001DB112301E009F101037C
:109BA0000AAA01A90CA8FFF7E2FEDDE90C70002665
:109BB00009F10105834647E001204B4600904FF034
:109BC00000470AAA01A90CA8FFF7D1FEDDE90DB0F4
:109BD0000C995D46002610B909F101000D18B9EB8A
:109BE000050003D4C0F1FF3609F10105A5EB09001A
:109BF0002BE0B9F1010F01DA4FF001090020B9F1B2
:109C0000110F0090484601DD112300E003460AAA27
:109C100001A90CA8FFF7ABFEDDE90C704D4600264C
:109C20008346207800070AD4AB4500DA5D4601A8D8
:109C3000012D04DD411911F8011C302907D04F45D1
:109C400002DA17F1040F04DA012082460FE06D1EDC
:109C5000EEE7002F02DCED1B3E4403E0781CA84237
:109C600000DD7D1CB81B00F1010A4FF00047207891
:109C7000000703D4AA4501DB4FF0FF3A0021B7F1FA
:109C8000004F0DF143088DF8431024D002202B2300
:109C9000002F01DA7F422D230A21021EA0F10100CC
:109CA00000DC5FB197FBF1FC97FBF1F201FB1C7C40
:109CB00017460CF1300C08F801CDEEE7A8F10100D1
:109CC00003702188090501D5452100E06521A0F137
:109CD000010800F8011C09980FA9A1EB0807FF1D56
:109CE00000B10120411901EBEA70A1693844081A5A
:109CF000401EA0612078C00602D42046FEF7E4FE94
:109D0000099828B1D4E901219047206A401C2062BB
:109D10002078C00622D52046FEF7D6FE1EE0002E93
:109D200004DBB34502DD01A8805D00E03020D4E90A
:109D300001219047206A401C2062761CAAF1010094
:109D40005FEA000A0AD1FFF74DFDC0680168405C78
:109D5000D4E901219047206A401C2062281EA5F109
:109D60000105DCDC07E0D4E9012118F8010B90477C
:109D7000206A401C2062381EA7F10107F3DC204650
:109D8000FEF7B8FE032011B041E600002DE9F04FC8
:109D900004460D46D21D22F0070089B0D0E9009795
:109DA000484639460FF094F90246F80F01D02D23AA
:109DB00007E02068810701D52B2302E0202101EA7A
:109DC000C0038DF820300BB1012000E00020032AF1
:109DD000824601D0072A04DB2946204600F076FEA1
:109DE0003FE12078800601D40D2500E0E569C7F346
:109DF0000A560D2D49DA00214FEA175B08464FF04D
:109E00000000002F00F4400007DA00EB80004FF460
:109E1000400100EBD07001EA60008115012901DDED
:109E20004FF0FF3100224FEA850CBCF1180F06D32A
:109E30001346ACF118004FF08052C24003E04FF4DB
:109E4000801323FA0CF30CF10C0CBCF1200F04D39B
:109E5000ACF1200C09FA0CF001E007FA0CF0002933
:109E60004FF0004801DD18B90FE00ED140450CD38A
:109E700019EB02095F4121B9404502D19F4329EA0C
:109E80000209BBEB175F00D0761C2088000502D5C5
:109E90007B48784402E07A487844193808AA30238D
:109EA00002F80A30037C0AF10101002E0AF1020ACD
:109EB00053546A4602DC4FF0300101E04FF03101AB
:109EC0004FF001088DF8001002D0A6F2FF3603E033
:109ED00059EA470100D06B4E002D02DC21780907BA
:109EE00004D54FF002082E218DF80110C446002140
:109EF0000BE0C7F303433F01C35C491C6D1E02F82E
:109F00000830052908F1010801DA002DF1DC0021F3
:109F10000CE000EB1973491C1B786D1E082902F830
:109F200008304FEA091908F1010801DA002DF0DCC8
:109F300021688B0602D516E0A8F10108E04505DD91
:109F400002EB080313F8013C302BF5D0B8F1000FF9
:109F500009DD02EB080313F8013C2E2B03D109079E
:109F600001D4A8F10108002D05DD3E2102F80810FA
:109F70006D1E08F10108407C002E02F8080008F16F
:109F8000010804DA2D20764202F8080002E02B20B6
:109F900002F808000A214FF47A70864208F101089D
:109FA0000BDB96FBF0F3303302F8083096FBF0F34E
:109FB00008F1010800FB136601E0642E0CDB64204D
:109FC00096FBF0F3303302F8083096FBF0F308F11B
:109FD000010800FB136601E00A2E06DB96FBF1F098
:109FE000303002F8080008F1010896FBF1F001FB9F
:109FF0001060303002F80800A16908F1010808EB90
:10A00000050202EB0A00081AA0612078C00602D4FB
:10A010002046FEF759FD216A08AE01EB0A002062D6
:10A0200004E0D4E9012116F8010B9047BAF1010AC6
:10A03000F7D22078C00602D52046FEF745FD6E46D1
:10A0400009E016F8010B3E280FD0D4E90121904712
:10A05000206A401C2062B8F10108F2D22046FEF7C7
:10A0600049FD09B00320BDE8F08F206A2844206232
:10A0700003E0D4E90121302090476D1EEBD3F8E7CF
:10A080002A03010002FCFFFF10B5436913B1AFF3CF
:10A09000008001E0FEF751FD012010BD127800F1B3
:10A0A00024010A7000224A700122EDE711684FF086
:10A0B000FF32E9E710B5436913B1AFF3008001E067
:10A0C000FEF7DAFD012010BD128800F12401828420
:10A0D0000022C2840122EDE711684FF0FF32E9E768
:10A0E0003A2800D2303820F02002412A01D3A2F1D0
:10A0F0003700884201D34FF0FF3070472DE9F34F0E
:10A100004FF0000A0C4656468DB001200C9001F12C
:10A110000C000B9062690B9801219047051E2DD011
:10A12000252D2CD0216A8847C0B162690B98012186
:10A130009047216A88470028F7D16269411E0B9831
:10A14000904700E0761CA1690D988847216A8847EE
:10A150000028F7D1E1690D988847DBE7A1690D98E0
:10A160008847A842074601D1761CD3E7E1690D98DC
:10A1700088477F1C02D1BAF1000F6FD06BE1626992
:10A180000B9800273D46394690472A2804D162693A
:10A190000B98012190470125DFF8D08262690B9866
:10A1A00001219047A0F130010A290AD24745E5DC98
:10A1B00007EB870100EB4107303FDFD445F0100586
:10A1C000ECE7E90601D46FF000476C280AD04C2870
:10A1D00014D0682815D06A280DD074281CD07A288D
:10A1E0001AD01DE062690B98012190476C2802D0BB
:10A1F00045F0040514E045F002050DE045F02005AA
:10A200000AE062690B9801219047682802D045F066
:10A21000080505E045F4006562690B980121904747
:10A22000C4E9015765283DD019DC58287AD00CDCE8
:10A23000452837D004DC252826D041289ED131E09E
:10A2400046282FD0472899D12CE05B2877D0612869
:10A2500028D063287CD0642823D15AE0F6E06F2808
:10A2600048D008DC66281DD067281BD0692821D07B
:10A270006E2816D127E0702845D0732868D075283D
:10A2800047D078280DD14DE0A1690D988847252841
:10A2900005463FF469AFE1690D9888476D1C3FF4AE
:10A2A0006AAFD8E00D9923466A466FF001000FF0BF
:10A2B0003FFFC5E045F0400023464FF000026060DC
:10A2C000A80736D43EE0E8077FF447AF2068011DB9
:10A2D00021600068290501D506701BE7290701D513
:10A2E000068017E7A90703D5F117C0E9006111E758
:10A2F00006600FE745F0400023464FF0080260601B
:10A30000A80716D41EE040F60E0125EA01006060A1
:10A3100016E045F0400023464FF00A026060A807AF
:10A3200007D40FE045F040006060A80708D5234639
:10A3300010220D996FF00100FEF780FE80E007E02B
:10A34000102223460D996FF00100FEF722FF77E0FF
:10A350004FF0000963284F46C8464B46CB4602D013
:10A360005B2806D038E0E80601D40120A060012770
:10A3700032E06269D4F80CB00B98012190475E2856
:10A3800007D14FF0010949466269D4F80CB00B9827
:10A390009047216939B900210A4603AB43F82120CF
:10A3A000491C0829FADBD8B3216949B308F101082F
:10A3B00062690B98012190475D28F4D1B9F1000F33
:10A3C00009D0002003A951F82020D24341F82020D1
:10A3D000401C0828F7DB03AB2069002820794FEAEE
:10A3E00040701ED05B462246CDF80080CDE9019733
:10A3F0000D9900286FF0010020DAFFF764F91FE0E3
:10A40000C11703AA00EBD1614B1121F01F0102EB30
:10A410008302411A13680120884003431360C7E791
:10A4200019E00D99224600286FF00100009702DA2A
:10A43000FFF74BF804E0FEF752FF01E0FFF7CFF81B
:10A4400000280ADA401C06D10C9820B14FF0FF30EA
:10A450000FB0BDE8F08F5046FAE7E90701D10AF1E5
:10A46000010A064400200C9054E60000CCCCCC0C31
:10A470002DE9FF4F06468BB00878FF2806D0491C0F
:10A480002D2805D000244FF0000908E000200CE042
:10A490000124F8E709EB8903491C00EB430908781C
:10A4A000FF28F7D114B1C9F10000814610780025CA
:10A4B0002C46AA4629462D2801D02B2804D1521C0F
:10A4C0002D2813D0002082468B461078FF280FD00D
:10A4D0004FF0000C0A21521CA5FB017804FB0181FE
:10A4E00005FB0C11C5194BEB0104EEE70120EAE76F
:10A4F000002108464FF00000BAF1000F02D000EB37
:10A5000080004008C0F38157012F01DD4FF0FF3775
:10A510000E9955EA040009EB01080BD04FF002092F
:10A5200018F5FA7F16DA4FEACA70002F706008DD5E
:10A53000012007E04FEACA70C6E900B00FB0BDE8DD
:10A54000F08F00203060FEF76DFAC0F800901821FF
:10A55000084616E0B8F5FA7F18DD002F02DAF74852
:10A56000784401E0F6487844D0E90010C6E90010CC
:10A5700040EACA707060FEF755FAC0F800901421E6
:10A5800008460FB0BDE8F04F0FF06BBD0021084644
:10A590004FF00000B8F10001099002DAC7F10002A3
:10A5A00000E03A4601DAC8F1000106A800F0CEFA50
:10A5B00006AB93E8070003AB83E8070044F23E00D4
:10A5C0005BEA04010090584604D144F21E012C4677
:10A5D0005D460091210C0904014306D10099240431
:10A5E00044EA15442D041039009104F07F410143E1
:10A5F00006D10099240244EA15642D02083900911D
:10A6000004F07041014306D10099240144EA157415
:10A610002D01091F009104F04041014306D100992A
:10A62000A40044EA9574AD00891E009104F0004135
:10A63000084304D100986D196441401E00904FF00A
:10A6400001033A466846B8F1000FCDE9014503A978
:10A6500002DD0EF006FC01E00EF0D9FBBAF1000FAE
:10A6600004460D4601D084F00044002108464FF016
:10A670000000099940F2FF77484010F00C0F07D115
:10A6800024F00040284303D0C4F30A50B84212D14A
:10A69000FEF7C8F9C0F80090C4F30A50B8420AD1D6
:10A6A000A8487844D0E90010C6E9001004F0004141
:10A6B0000843706042E7C6E900543FE72DE9FF4FC9
:10A6C0001F464FF0000A4FF0FF38454691B0D7E9DA
:10A6D0000146CDF83CA0FFF785F8C0680168405CF2
:10A6E0001090B96912986D1C8847396A814688476D
:10A6F0000028F6D1B9F1FF3F0AD0002E24F4D0642F
:10A7000011DDB9F12B0F08D0B9F12D0F0BD102E0FB
:10A71000404615B013E744F48064B96912986D1C83
:10A720008847761E8146600504A901D52D2000E0EA
:10A730002B20002E01F1010B0DF130088DF81000D7
:10A740003FDDB9F1690F08D0B9F1490F05D0B9F172
:10A750006E0F02D0B9F14E0F1CD13B4601A80095F7
:10A7600080E85002DDE912126FF002000FF0E4FC05
:10A77000C11CCED10EE0B96912986D1C8847814684
:10A780001398761E44F4007405600F98401C002E48
:10A790000F9016DDB9F1300FEDD0B9F1780F02D07E
:10A7A000B9F1580F0DD10F9801280AD13B46CDE9D8
:10A7B0000054DDE91212001F02960FF0BBFCC11C11
:10A7C000A7D1109989453ED144F0800406E0139941
:10A7D000681CAAF1010A44F400740860B9696D1C90
:10A7E0001298761E884730288146F0D02BE01099C9
:10A7F000894505D1200603D4761E44F0800418E074
:10A8000048460EF094FD08B3761E0DF123029345E1
:10A81000A9F1300044F4007406D20BF8010B2006B5
:10A8200007D5AAF1010003E0200602D40AF10100D5
:10A830008246A00502D51399681C0860B969129870
:10A840006D1C88478146002ED1DC53E0002E51DD7F
:10A85000B9F1650F02D0B9F1450F4BD1A00549D52B
:10A86000B9696D1C1298761E24F440748847002E36
:10A8700081460CDD2B2804D0B9F12D0F07D144F40B
:10A880008074B96912986D1C8847761E8146E00570
:10A8900001D52D2100E02B2108F8011BCDF8008007
:10A8A00021E0761E0DF13901884544F400740CD284
:10A8B000A9F1300010F0FF0088F8000002D10099E3
:10A8C000884509D908F1010806E0E00501D51E48D0
:10A8D00001E042F20F708246B96912986D1C8847F8
:10A8E000814613980560002E04DD48460EF01FFDDA
:10A8F0000028D6D1F96912988847FF2053468BF873
:10A90000000088F8000000200A900B9004AA0CA90F
:10A910000AA8FFF7ADFDA00502D46FF00100F8E62C
:10A9200014F0240F12D0E0071CD13868DDE90A12B8
:10A93000031D3B600068C0E9001213E074070100CA
:10A94000660701002A060100F1D8FFFF0AA9684640
:10A950000EF0DAFCE00705D13868009A011D396075
:10A96000006802602846D4E610B508E030F8024BD3
:10A970009C4204D10AB1002010BD012010BD491E27
:10A98000F4D2104610BDF8B516460C460546FEF743
:10A990003DF8036893F80101012804D0185D78B1EF
:10A9A00001202C80F8BDD3F803013246214603F282
:10A9B0000313C71868460023B84700992980F8BDDB
:10A9C0004FF0FF30F8BD2DE9F04116460C46054624
:10A9D000FEF71CF8036893F80101012807D0FF2C4B
:10A9E00012D8185D80B101202C70BDE8F081D3F839
:10A9F00007013246214603F20713C7182846BC4612
:10AA0000BDE8F041002360474FF0FF30EDE710B59F
:10AA100000F01CF9BDE8104000F013B930B5034652
:10AA20001D781DB10A4603E0AC4201D1181A30BDB1
:10AA300012F8014B002CF7D15B1CF1E730B503464F
:10AA40001D783DB10A4612F8014B1CB1AC42FAD157
:10AA50005B1CF5E7181A30BD70477546FEF7BEFE61
:10AA6000AE4605006946534620F00700854618B0FB
:10AA700020B5FDF765FCBDE820404FF000064FF023
:10AA800000074FF000084FF0000BAC46ACE8C009DF
:10AA9000ACE8C009ACE8C009ACE8C00921F0070186
:10AAA0008D467047B2F120030AD5C2F1200301FAA6
:10AAB00002F120FA03F341EA030100FA02F07047C1
:10AAC00000FA03F14FF00000704700002DE9F0415B
:10AAD0001F46044603260168072A01F4006004DBD0
:10AAE00008B116A505E016A503E008B115A500E01C
:10AAF00015A521F010002060A069C01EA0610FB153
:10AB0000401EA0612046FDF7DFFF4FB1D4E90121CF
:10AB100038469047206A401C2062C01C206206E034
:10AB2000206AFAE7D4E9012115F8010B9047761E57
:10AB3000F8D22046FDF7DEFFBDE8F0814E414E0021
:10AB40006E616E00494E4600696E66002DE9F04761
:10AB5000814616468AB0354878440DC88DE80D0008
:10AB600032487844801C03AC0DC884E80D0041F6DF
:10AB70009B300844372190FBF1F290FBF1F5A5F1F1
:10AB8000800501FB12041B3C02D56442012000E059
:10AB90000020DFF898A080460027FA44AAF1BE0AF8
:10ABA0000EE0E0070AD03246684607EB4701012372
:10ABB0000AEB81010EF040F98DE8070064107F1C5C
:10ABC000002CEED1194F7F44AE3F19E0E80715D0B5
:10ABD00007EB04100DF1180A90E80E008AE80E0049
:10ABE000C068F04201D1981908903246012306A9A5
:10ABF00003A80EF021F903AB83E807006D10641C75
:10AC0000002DE3D14FF0010332466946B8F1000F41
:10AC100003A802D00EF0E6F801E00EF00DF9C9E944
:10AC20000001C9F808200AB0BDE8F087F4F600007A
:10AC300010B50446AFF300802046BDE81040FDF794
:10AC40006ABB002801D000F029B8704710B5012870
:10AC500005D0002103A000F05DFA012010BD09A17C
:10AC6000F8E7000053494752544D454D3A204F757F
:10AC700074206F662068656170206D656D6F7279F4
:10AC8000000000003A2048656170206D656D6F72AC
:10AC90007920636F727275707465640001491820C1
:10ACA000ABBEFEE72600020010B5FDF7BBFE006854
:10ACB00010BD10B50446FDF7B5FE046010BD0000E0
:10ACC0002DE9FF4F1F464FF03C0987B04FF000427F
:10ACD000DDE9141001F10108DDF858A002EA405046
:10ACE0000390002005908346054604460490B96908
:10ACF000461E08988847AAF1010A0290BAF1000F8F
:10AD00003BDD02982E2815D01021FFF7E9F9002825
:10AD10002EDB4FF0010B0599014317D0B9F1000F5D
:10AD20000BDB4A46C117FFF7BDFE05430C43A9F1F3
:10AD3000040905E0012004900BE008B145F001058D
:10AD400001200590049820B9361D02E0049800B156
:10AD5000361FB969089808F101088847BBF1000F50
:10AD6000AAF1010A0290C9D00999C1F80080C5E78B
:10AD70000298702808D0502806D0F96908988847AA
:10AD8000BBF1000F14D04FE0002002900120BBF176
:10AD9000000F049009D0B969089808F101088847A4
:10ADA000AAF10109B9F1000F07DCF9690898884791
:10ADB0006FF001000BB0BDE8F08F2B2804D02D28D8
:10ADC0000CD14FF0FF300490B969089808F10108E0
:10ADD0008847A9F10109B9F1000FE6DD411CE4D073
:10ADE0000A21FFF77DF90028DFDB029908F101084D
:10ADF00001EB810100EB41000290B9690898884796
:10AE00000A21FFF76DF9099AA9F10109B9F1000FBB
:10AE1000C2F8008001DD0028E7DAF9690898884760
:10AE20000499029800FB016655EA040004D004F07E
:10AE30004041090002D006E0039898E0A40044EAEB
:10AE40009574AD00B61E04F00041080002D16D19E2
:10AE50006441761E159810F0240F03D04FF00B09B3
:10AE60005C4803E04FF028096FF07D0082465645AC
:10AE700007DAAAEB06018944B9F1410F01DD4FF071
:10AE8000410901200021A9F10102FFF70BFE024652
:10AE900028400B462140084301D0012100E0002159
:10AEA000501E029143F1FF3128402140084301D058
:10AEB000012000E000200299834651EA0B014FD0A7
:10AEC000002108464FF00000039900F4400039B11A
:10AED00000EB80004FF4400100EBD07001EA60000D
:10AEE0008015012802DD4FF0FF3000E013D0401C38
:10AEF00036D0029860B3BBF1000F0CD14A46012056
:10AF00000021FFF7CFFD28402140084301D0012058
:10AF100000E00020E0B101204A460021FFF7C2FD19
:10AF2000034640190A4661412D1A8C4111D3B9F1EB
:10AF3000400F09DD159810F0240F02D0AAF1340655
:10AF400003E0AAF1170600E0761C00254FF000444C
:10AF500006E05B1E42F1FF3220EA030521EA02040B
:10AF6000CAF10100B04206DA1B4903980843019078
:10AF7000002000900EE0039AC4F3D321E80A0A43AC
:10AF8000164940EA44500A433146CDE9000268467A
:10AF90000EF0C3F9159810F0240F0BD01598C007C8
:10AFA00015D13868DDE90012031D3B600068C0E977
:10AFB00000120CE002A869460EF0A6F91598C00729
:10AFC00005D13868029A011D396000680260404668
:10AFD000F0E6000002FCFFFF0000F07F0000F03F01
:10AFE0002DE9FF4F92461D4685B04FF00041DDE947
:10AFF000124BDDE914727F1E01EA4B50414940F0CB
:10B00000FF4940EA0108002122F02000492804916C
:10B0100002D04E2828D04CE03BA0012607C88DE87E
:10B020000700A9690698641C88477F1E014606D45C
:10B030001DF8060018B121F0200181420BD0E9690A
:10B0400006988847032E34D0082E32D06FF00100C6
:10B0500009B0BDE8F08F761C032E01D0082EE0D198
:10B06000601CCAF80000DCE7A9690698641C8847E0
:10B070007F1E2AD420F02000412826D1A9690698F5
:10B08000641C88477F1E20D420F020004E281CD14D
:10B09000A9690698641C88477F1E48F4002849F473
:10B0A0008009CAF8004001D4282806D0E96906982A
:10B0B00088475FEACB7012D022E0A9690698641C29
:10B0C00088477F1E01D4002803DAE969069888477B
:10B0D000BCE72928F1D1641CCAF80040E9E71BF05D
:10B0E000240F07D028680499031D2B600068C0E96D
:10B0F000001805E02868021D2A600068C0F800906A
:10B100002046A5E70000F07F494E46494E49545974
:10B110000000000070B505460C460A2000E06D1CDA
:10B1200000F011F835B128780028F8D102E0641C4D
:10B1300000F009F814B120780028F8D1BDE870407B
:10B140000A20AFF3008008B569468DF8000003209F
:10B15000ABBE08BD82B08DED010A9DED010AB5EED2
:10B16000400AF1EE10FA03DAFFE70020019010E048
:10B170009DED010A9FED0D1AB4EE410AF1EE10FAB1
:10B1800006DDFFE741F27B40C4F246000190FFE795
:10B19000FFE79DED010A9FED061A20EE010A8DEDF5
:10B1A000000A9DED000A02B0704700BF7B144640C4
:10B1B000FFC8CE4082B08DED010A9DED010A9FEDE2
:10B1C000171AB4EE410AF1EE10FA06DAFFE747F279
:10B1D000C960C3F61E70019010E09DED010A9FED5D
:10B1E000101AB4EE410AF1EE10FA06DDFFE741F263
:10B1F0007B40C4F246000190FFE7FFE79DED010AA6
:10B200009FED081A30EE010A9FED071A20EE010AA1
:10B210008DED000A9DED000A02B07047C9761E3F11
:10B220007B144640C9761EBF078D214300000000F5
:10B2300080B582B040F60850C2F2000006F044FB30
:10B2400040F2F870C2F200000088B0F5967F03DD8E
:10B25000FFE707F02FFDFFE740F60850C2F20000BD
:10B2600080680EF051FE41EC100B9FED1D1B53EC5E
:10B27000112B51EC100B0EF08EFE002815D1FFE7BC
:10B2800041F24060C2F20000012180F85D1040F2FE
:10B290000400C2F200000021417140F2F870C2F2D5
:10B2A000000001808DF8071016E041F24060C2F204
:10B2B0000000002180F85D1040F20400C2F200009E
:10B2C0000122427140F2F870C2F20000028801329D
:10B2D00002808DF80710FFE79DF8070002B080BDDF
:10B2E000000000000000F03FFFE7FEE770470000AD
:10B2F00080B5252001F03AFD172001F037FD282008
:10B3000001F034FD322001F031FD1C2001F02EFD52
:10B3100080BD000080B54FF4806000F097FB4FF4D3
:10B32000006000F093FB80BD80B54FF4007000F02A
:10B330008DFB80BD80B5252001F024FD172001F094
:10B3400021FD282001F01EFD322001F01BFD1C20F4
:10B3500001F018FD80BD000072B6FFE7FEE70000B7
:10B3600040F20400C2F200000079012810D0FFE78B
:10B3700040F20400C2F200000078012808D0FFE784
:10B3800040F20400C2F200004079012807D1FFE733
:10B3900040F20400C2F200000121817106E040F297
:10B3A0000400C2F2000000218171FFE77047000035
:10B3B00080B5ADF5047D829004F02AFC829802A944
:10B3C0004FF40072019104F099FC40F28870C2F2CF
:10B3D0000000006801990CF045FA002804D0FFE74E
:10B3E00001208DF80F0209E040F66840C2F200002B
:10B3F000002180F889108DF80F12FFE79DF80F02E9
:10B400000DF5047D80BD000080B5ADF5047D839011
:10B4100001208DF80B00839803A94FF4007201916D
:10B4200007F08EFA40F28870C2F2000000680199BD
:10B430000CF018FA002804D0FFE700208DF80B006C
:10B44000FFE79DF80B0000F001000DF5047D80BDC5
:10B4500080B541F6EC00C2F2000042F25931C2F26E
:10B460000001012204F090FB80BD000080B585B092
:10B47000049004980069C0F10E004AF6AB21C2F6B0
:10B48000AA2150FB01F0410801EBD0708DF80F00AC
:10B49000049840699DF80F10401A00F59650ADF8D9
:10B4A0000C00049800699DF80F1001EB410100EBBE
:10B4B000810003388DF80B000498C06801909DF856
:10B4C0000B000221992210FB02104CF6CD41CCF664
:10B4D000CC41A0FB0101019A02EB91010191BDF861
:10B4E0000C10019A40F26D1301FB03210191BDF88C
:10B4F0000C10019A02EB91010191BDF80C1048F279
:10B500001F52C5F2EB12A1FB0213DDF804C0ACEB35
:10B5100053130193BDF80C30A3FB0223DDF804C0E4
:10B520000CEBD3130193019B47F62D5CA3EB0C03AB
:10B530000193019B4CF2742CCFF6DA7C63440193A7
:10B54000019B45F2801CC0F2010C03FB0CF301933C
:10B55000049B1B68DDF804C04FF4616E03FB0EC34F
:10B560000193049B5B68C3EB0313DDF804C00CEB91
:10B5700083030193049B9B68DDF804C0634401933B
:10B58000019B0090184605B080BD000080B582B0D8
:10B5900042F25930C2F2000000780A281CD0FFE7BE
:10B5A00042F25A30C2F2000090F90000002813D491
:10B5B000FFE742F25930C2F20000007842F25A31FD
:10B5C000C2F200010A7842F2D923C2F20003985471
:10B5D00008780130087011E042F2D920C2F2000070
:10B5E000019000F019F842F25A30C2F20000002136
:10B5F000017080210198FDF750F9FFE741F6EC005A
:10B60000C2F2000042F25931C2F20001012204F0FC
:10B61000BBFA02B080BD000080B596B01590002046
:10B6200014901390129015984AF6BB11C0F60101C0
:10B630000622FDF770F800283ED1FFE7159840F28A
:10B64000FC71C2F2000101F120026B46DA6101F1E6
:10B6500034029A6101F130025A6101F125021A6146
:10B6600001F11C02DA6001F124029A6001F1180272
:10B670005A6001F108021A600B1D4AF6F512C0F675
:10B68000010211911146119AFCF786FF119991ED73
:10B69000060A91F824201090104609F069FC1198D0
:10B6A00080ED060A90ED070A90F8250009F060FC8D
:10B6B000119880ED070A6EE015984AF6C211C0F69F
:10B6C00001010622FDF727F8002847D1FFE715986A
:10B6D000694612AA4A6213AA0A6214AACA6140F20F
:10B6E000FC72C2F2000202F12C038B6102F128030A
:10B6F0004B6102F125030B6102F11C03CB6002F1E7
:10B7000024038B6002F118034B6002F108030B6005
:10B71000131D4AF62F21C0F601010F92FCF73CFFE2
:10B720000F9991ED060A91F824200E90104609F029
:10B730001FFC0F9880ED060A90ED070A90F825008F
:10B7400009F016FC0F9880ED070A1499C16013994F
:10B750000161129901F5FA6141611BE015984AF601
:10B76000C911C0F601010622FCF7D5FF002810D14F
:10B77000FFE7159840F2FC71C2F2000101F12C02C2
:10B7800001F128034AF6D011C0F60101FCF704FFCD
:10B79000FFE7FFE7FFE742F25B30C2F2000080798B
:10B7A00000285CD1FFE740F2FC70C2F2000090ED8F
:10B7B000060AB5EE400AF1EE10FA50DDFFE740F25E
:10B7C000FC70C2F2000090ED070AB5EE400AF1EEFF
:10B7D00010FA44DDFFE740F2FC70C2F2000080681E
:10B7E00001283CDBFFE740F2FC70C2F20000C068B9
:10B7F000012834DBFFE740F2FC70C2F20000016870
:10B8000040F63C02C2F2000211704168517081683A
:10B8100091704169A1F5FA6140F63803C2F2000364
:10B82000D97001695970C068987041F29C70C2F279
:10B83000000000210D900C9111460C9A0B9302F020
:10B8400043FB0D990A9008460B990C9A02F0A4FA52
:10B8500042F25B31C2F2000101228A71FFE716B0A9
:10B8600080BD000080B584B002900298806D019088
:10B8700000F034FB0090029890F8350002280DD0BB
:10B88000FFE7029880214165FFE70298002180F8D8
:10B890003410FFE701208DF80F0059E0029800688E
:10B8A000016821F01601016002980068416921F0E9
:10B8B000800141610298006C002805D1FFE70298E1
:10B8C000806C002807D0FFE702980068016821F02B
:10B8D00008010160FFE702980068016821F001019A
:10B8E0000160FFE7029800680068C007002819D0CF
:10B8F000FFE700F0F3FA0099401A062811D3FFE79A
:10B900000298202141650298032180F83510FFE755
:10B910000298002180F83410FFE703208DF80F0013
:10B9200016E0DFE70298C06D3F2101FA00F00199AF
:10B9300088600298012180F83510FFE70298002105
:10B9400080F83410FFE7FFE700208DF80F00FFE7D5
:10B950009DF80F0004B080BD82B00090009890F870
:10B960003500022807D0FFE70098802141650120BB
:10B970008DF807000EE00098052180F8351000983A
:10B980000068016821F001010160FFE700208DF8E7
:10B990000700FFE79DF8070002B0704780B584B04C
:10B9A000039000F09BFA02900398019001980130F7
:10B9B000002809D0FFE740F28C70C2F20000007846
:10B9C000019908440190FFE7FFE700F087FA029928
:10B9D000401A0199884201D2FFE7F6E704B080BD22
:10B9E00080B582B00146ADF8060040F62E50C2F296
:10B9F00000000078002826D1FFE740F62E50C2F262
:10BA000000000121017041F61400C2F2000001683B
:10BA100000224A6203F0CEF9BDF806100A46B1F5DD
:10BA2000007F00920AD0FFE70098B0F5806F07D042
:10BA3000FFE70098B0F5006F01D002E002E001E0FE
:10BA400000E0FFE7FFE702B080BD000080B582B0F4
:10BA50000146ADF8060043F61440C4F20100006848
:10BA6000BDF8062010420CD0FFE7BDF8060043F6F3
:10BA70001441C4F201010860BDF80600FFF7B0FFF1
:10BA8000FFE702B080BD00008EB00D900C91002049
:10BA90000A90099008900B90FFE70B980F2800F28E
:10BAA000D281FFE70B98012101FA00F00A900C986F
:10BAB00000680A990840099009980A99884240F05C
:10BAC000BD81FFE70C98406800F00300012807D013
:10BAD000FFE70C98406800F0030002282FD1FFE731
:10BAE0000D98806808900B984000032101FA00F03F
:10BAF000089921EA000008900C98C0680B99490049
:10BB0000884008990843089008980D9988600D9816
:10BB1000406808900B98012101FA00F0089921EA89
:10BB2000000008900C984068C0F300100B99884002
:10BB300008990843089008980D994860FFE70C9809
:10BB4000406800F00300032818D0FFE70D98C06894
:10BB500008900B984000032101FA00F0089921EAAF
:10BB6000000008900C9880680B994900884008995B
:10BB70000843089008980D99C860FFE70C98406842
:10BB800000F00300022826D1FFE70D980B996FF013
:10BB9000030202EA51010844006A08900B9800F081
:10BBA000070080000F2101FA00F0089921EA000047
:10BBB00008900C9800690B9901F0070189008840F2
:10BBC00008990843089008980D990B9B02EA5302C4
:10BBD00011440862FFE70D98006808900B98400038
:10BBE000032101FA00F0089921EA000008900C985E
:10BBF000406800F003000B99490088400899084309
:10BC0000089008980D9908600C98807980070028A2
:10BC100000F01381FFE7FFE70020079043F64400A0
:10BC2000C4F20200016841F480410160006800F440
:10BC3000804007900798FFE70B9820F0030043F639
:10BC40000801C4F20101405808900B9800F003006D
:10BC500080000F2101FA00F0089921EA0000089005
:10BC60000D980021C4F20201884203D1FFE70020B1
:10BC700006905EE00D9840F20041C4F20201884255
:10BC800003D1FFE70120059050E00D9840F6000138
:10BC9000C4F20201884203D1FFE70220049042E08F
:10BCA0000D9840F60041C4F20201884203D1FFE73B
:10BCB0000320039034E00D9841F20001C4F2020128
:10BCC000884203D1FFE70420029026E00D9841F25C
:10BCD0000041C4F20201884203D1FFE70520019030
:10BCE00018E00D9841F60001C4F20201884203D128
:10BCF000FFE7062000900AE00D9841F60041C4F2EB
:10BD000002010822884208BF07220092FFE700983C
:10BD10000190FFE701980290FFE702980390FFE788
:10BD200003980490FFE704980590FFE705980690B4
:10BD3000FFE70698C0B20B9901F003018900884023
:10BD400008990843089008980B9921F0030143F6DD
:10BD50000802C4F20102885043F60840C4F2010010
:10BD6000006808900998089921EA000008900C984A
:10BD70008079C006002805D5FFE70998089908438F
:10BD80000890FFE7089843F60841C4F201010860F3
:10BD900043F60C40C4F20100006808900998089925
:10BDA00021EA000008900C9880798006002805D5CB
:10BDB000FFE70998089908430890FFE7089843F6B9
:10BDC0000C41C4F20101086043F60440C4F20100D2
:10BDD000006808900998089921EA000008900C98DA
:10BDE00080798007002805D5FFE70998089908435E
:10BDF0000890FFE7089843F60441C4F20101086087
:10BE000043F60040C4F201000068089009980899C0
:10BE100021EA000008900C988079C007002805D01E
:10BE2000FFE70998089908430890FFE7089843F648
:10BE30000041C4F201010860FFE7FFE7FFE70B984C
:10BE400001300B9029E60EB07047000082B00A4620
:10BE50000190ADF8021001980069BDF80210084287
:10BE600004D0FFE701208DF8010003E000208DF8E9
:10BE70000100FFE79DF8010002B0704783B00A4659
:10BE80000290ADF806100298406900900098BDF845
:10BE9000061000EA010321EA000040EA034002998B
:10BEA000886103B07047000082B013468C46019051
:10BEB000ADF802108DF801209DF80100002805D092
:10BEC000FFE7BDF802000199886105E0BDF80200B6
:10BED000000401998861FFE702B0704742F26830C0
:10BEE000C2F200000068704780B58EB00C900C98CC
:10BEF000002804D1FFE701208DF837004DE10C98B0
:10BF000090F83D00002808D1FFE70C98002180F848
:10BF10003C100C9800F098FDFFE70C98242180F865
:10BF20003D100C980068016821F0010101600C9837
:10BF30000068016841F4004101600C9800680168E4
:10BF400021F40041016001F0B1F90A900C984068B9
:10BF500048F2A061C0F2010188420BD8FFE70A98BD
:10BF600048F28041C0F21E010022884238BF0122FF
:10BF700009920AE00A9840F60011C0F23D01002241
:10BF8000884238BF01220992FFE70998012804D1AD
:10BF9000FFE701208DF83700FFE00A984DF6836136
:10BFA000C4F21B31A0FB0101890C0B910C990968AB
:10BFB000496821F03F010B9A11430C9A12685160B5
:10BFC0000C990968096A21F03F010C9A526848F2FD
:10BFD000A063C0F201039A42089104D8FFE70B98CE
:10BFE000013007900EE00B984FF49671484344F6E9
:10BFF000D351C1F26201A0FB0101012202EB9111B8
:10C000000791FFE70798089908430C9A1268106295
:10C010000C980068C0694CF6FF7290430C9A526805
:10C0200048F2A063C0F201039A4206901FD8FFE7CE
:10C030000A9801380C9949684900B0FBF1F00130C9
:10C040006FF31F30032803D8FFE7042005900BE0AF
:10C050000A9801380C9949684900B0FBF1F00130A9
:10C060006FF31F300590FFE7059804904FE00C98A0
:10C07000806800280DD1FFE70A9801380C994968BB
:10C0800001EB4101B0FBF1F001306FF31F30039081
:10C090000DE00A9801380C99496819225143B0FB08
:10C0A000F1F00130042161F31F300390FFE70398A2
:10C0B0000005002803D1FFE70120029024E00C983E
:10C0C000806800280DD1FFE70A9801380C9949686B
:10C0D00001EB4101B0FBF1F001306FF31F30019033
:10C0E0000DE00A9801380C99496819225143B0FBB8
:10C0F000F1F00130042161F31F300190FFE7019856
:10C1000040F400400290FFE702980490FFE7049893
:10C11000069908430C9A1268D0610C980068006870
:10C1200020F0C0000C9A1368D2F81CC0126A42EAD0
:10C130000C02104318600C980068806848F2FF32C7
:10C1400090430C9A1368D2F80CC0126942EA0C02B0
:10C15000104398600C980068C06820F0FF000C9AAB
:10C160001368D2F814C0926942EA0C021043D860F6
:10C170000C980068026842F0010202600C980022EC
:10C1800002640C98202380F83D300C9802630C98D0
:10C1900080F83E208DF83720FFE79DF837000EB07D
:10C1A00080BD000010B58EB0DDF840C09E460C4644
:10C1B0000C90ADF82E100A92ADF82630CDF80CC0D8
:10C1C000CDF808E00194FFF789FE08900C9890F8EC
:10C1D0003D00202840F00582FFE70C9808996A4648
:10C1E00011600221C0F210010122192304F0A2F80B
:10C1F000002804D0FFE702208DF83700F5E1FFE7C3
:10C200000C9890F83C00012804D1FFE702208DF83B
:10C210003700EAE10C98012180F83C10FFE7FFE7C6
:10C220000C9800680068C007002807D1FFE70C9849
:10C230000068016841F001010160FFE70C980068A7
:10C24000016821F4006101600C98222180F83D1002
:10C250000C98102180F83E100C98002101640A9877
:10C260000C994862BDF826000C9948850C98408DC1
:10C270000C9908850C980021CFF6FF71C1620C98CB
:10C28000BDF82E10109A089B03F0E4FD002804D09E
:10C29000FFE701208DF83700A7E10C98008D0028FA
:10C2A00014D1FFE7FFE7002007900C980068406971
:10C2B00007900C980068806907900798FFE70C9832
:10C2C0000068016841F40071016053E00C98008D32
:10C2D00001281AD1FFE70C980068016821F48061F9
:10C2E0000160FFE7002006900C9800684069069006
:10C2F0000C980068806906900698FFE70C98006823
:10C30000016841F40071016033E00C98008D02284F
:10C310001AD1FFE70C980068016821F48061016080
:10C320000C980068016841F400610160FFE700209B
:10C3300005900C980068406905900C980068806929
:10C3400005900598FFE713E00C980068016841F438
:10C3500080610160FFE7002004900C98006840694C
:10C3600004900C980068806904900498FFE7FFE748
:10C37000FFE7FFE7FFE70C98008D002800F01F8122
:10C38000FFE70C98008D032800F2D080FFE70C989F
:10C39000008D01281FD1FFE70C981099089A04F02E
:10C3A000FBF8002804D0FFE701208DF837001CE1DE
:10C3B0000C98006800690C99496A08700C98416AE9
:10C3C000013141620C98018D013901850C98418D34
:10C3D00001394185A9E00C98008D02283DD1FFE785
:10C3E0000C98109B08996A4611600421C0F2010163
:10C3F000002203F09FFF002804D0FFE701208DF802
:10C400003700F2E00C980068016841F400710160A7
:10C410000C98006800690C99496A08700C98416A88
:10C42000013141620C98018D013901850C98418DD3
:10C43000013941850C98006800690C99496A0870B7
:10C440000C98416A013141620C98018D01390185D6
:10C450000C98418D0139418566E00C98109B089934
:10C460006A4611600421C0F20101002203F062FF5C
:10C47000002804D0FFE701208DF83700B5E00C98C4
:10C480000068016821F4806101600C98006800690F
:10C490000C99496A08700C98416A013141620C9804
:10C4A000018D013901850C98418D013941850C9828
:10C4B000109B08996A4611600421C0F20101002214
:10C4C00003F038FF002804D0FFE701208DF8370083
:10C4D0008BE00C980068016841F4007101600C98D1
:10C4E000006800690C99496A08700C98416A01312A
:10C4F00041620C98018D013901850C98418D0139FB
:10C5000041850C98006800690C99496A08700C987C
:10C51000416A013141620C98018D013901850C9805
:10C52000418D01394185FFE7FFE747E00C981099FD
:10C53000089A04F031F8002804D0FFE701208DF8B4
:10C54000370052E00C98006800690C99496A08703D
:10C550000C98416A013141620C98018D01390185C5
:10C560000C98418D013941850C980068406900F0B4
:10C5700004000121B1EB900F1FD1FFE70C98008D53
:10C58000032807D1FFE70C980068016821F4806157
:10C590000160FFE70C98006800690C99496A08700F
:10C5A0000C98416A013141620C98018D0139018575
:10C5B0000C98418D01394185FFE7FFE7DBE60C98D8
:10C5C000202180F83D100C98002180F83E10FFE7F4
:10C5D0000C98002180F83C10FFE700208DF8370010
:10C5E00003E002208DF83700FFE79DF837000EB01A
:10C5F00010BD000010B58CB0DDF838C09E460C466A
:10C600000A90ADF826100892ADF81E30CDF810C093
:10C61000CDF80CE00294FFF761FC06900A9890F8C0
:10C620003D00202840F0EF80FFE70A9806996A460F
:10C6300011600221C0F210010122192303F07AFED9
:10C64000002804D0FFE702208DF82F00DFE0FFE78D
:10C650000A9890F83C00012804D1FFE702208DF8E9
:10C660002F00D4E00A98012180F83C10FFE7FFE793
:10C670000A9800680068C007002807D1FFE70A98F9
:10C680000068016841F001010160FFE70A98006855
:10C69000016821F4006101600A98212180F83D10B1
:10C6A0000A98102180F83E100A9800210164089829
:10C6B0000A994862BDF81E000A9948850A98408D7B
:10C6C0000A9908850A980021CFF6FF71C1620A987D
:10C6D000BDF826100E9A069B03F098FC002804D0A3
:10C6E000FFE701208DF82F0091E0FFE70020059083
:10C6F0000A980068406905900A980068806905906A
:10C700000598FFE7FFE70A98008D002863D0FFE750
:10C710000A980E99069A03F0AFFF002810D0FFE7A1
:10C720000A98006C042807D1FFE70A98006801689E
:10C7300041F400710160FFE701208DF82F0066E0F1
:10C740000A980168406A007808610A98416A0131D4
:10C7500041620A98418D013941850A98018D01395C
:10C7600001850A980068406900F004000121B1EBDE
:10C77000900F17D1FFE70A98008D002812D0FFE72D
:10C780000A980168406A007808610A98416A013194
:10C7900041620A98418D013941850A98018D01391C
:10C7A0000185FFE70A980E99069A03F069FD0028B3
:10C7B00010D0FFE70A98006C042807D1FFE70A9819
:10C7C0000068016841F400710160FFE701208DF805
:10C7D0002F001CE097E70A980068016841F4007197
:10C7E00001600A98202180F83D100A98002180F805
:10C7F0003E10FFE70A98002180F83C10FFE7002078
:10C800008DF82F0003E002208DF82F00FFE79DF840
:10C810002F000CB010BD0000F0B58DB0DDF850C099
:10C82000DDF84CE0129C1D4616460F460B90ADF805
:10C830002A10ADF82820ADF82630ADF824E0CDF868
:10C840001CC00694059504960397FFF747FB0890D4
:10C850000B9890F83D00202840F0ED80FFE70B9802
:10C8600008996A4611600221C0F2100101221923C1
:10C8700003F060FD002804D0FFE702208DF83300AC
:10C88000DDE0FFE70B9890F83C00012804D1FFE7BA
:10C8900002208DF83300D2E00B98012180F83C1083
:10C8A000FFE7FFE70B9800680068C007002807D182
:10C8B000FFE70B980068016841F001010160FFE7A4
:10C8C0000B980068016821F4006101600B98212138
:10C8D00080F83D100B98402180F83E100B98002105
:10C8E000016412980B994862BDF824000B994885A1
:10C8F0000B98408D0B9908850B980021CFF6FF719E
:10C90000C1620B98BDF82A10BDF82820BDF826306A
:10C91000DDF850C0DDF820E06C46C4F804E0C4F84F
:10C9200000C003F001FC002804D0FFE701208DF8CF
:10C93000330084E0FFE70B98008D00284BD0FFE721
:10C940000B981499089A03F097FE002810D0FFE77F
:10C950000B98006C042807D1FFE70B98006801686A
:10C9600041F400710160FFE701208DF8330066E0BB
:10C970000B980168406A007808610B98416A0131A0
:10C9800041620B98018D013901850B98418D013968
:10C9900041850B980068406900F004000121B1EB6B
:10C9A000900F17D1FFE70B98008D002812D0FFE7FA
:10C9B0000B980168406A007808610B98416A013160
:10C9C00041620B98018D013901850B98418D013928
:10C9D0004185FFE7AFE70B981499089A03F050FCE4
:10C9E000002810D0FFE70B98006C042807D1FFE760
:10C9F0000B980068016841F400710160FFE70120B5
:10CA00008DF833001BE00B980068016841F4007159
:10CA100001600B98202180F83D100B98002180F8D0
:10CA20003E10FFE70B98002180F83C10FFE7002044
:10CA30008DF8330003E002208DF83300FFE79DF806
:10CA400033000DB0F0BD000080B590B00F90002015
:10CA50000E900D900C900B900A900F98006845F284
:10CA60000041C4F20001884234D1FFE7FFE7002013
:10CA7000099043F63000C4F20200016841F002015F
:10CA80000160006800F0020009900998FFE7C020EB
:10CA90000A9012200B9000200C9003200D9004208F
:10CAA0000E9040F20040C4F202000AA9FEF7ECFF2B
:10CAB000FFE70020089043F64000C4F2020001683E
:10CAC00041F400110160006800F40010089008981B
:10CAD000FFE769E00F98006845F60041C4F20001E5
:10CAE000884260D1FFE7FFE70020079043F630005F
:10CAF000C4F20200016841F004010160006800F026
:10CB0000040007900798FFE7FFE70020069043F630
:10CB10003000C4F20200016841F0010101600068C8
:10CB200000F0010006900698FFE74FF400700A90AD
:10CB300012200B9000210C9103220D9204230E93DE
:10CB400040F6000CC4F2020C0DF1280E0490604671
:10CB50000391714602920193CDF800E0FEF794FF35
:10CB60004FF480700A9004980B9003990C91029AEC
:10CB70000D92019B0E930020C4F202000099FEF773
:10CB800083FFFFE70020059043F64000C4F2020057
:10CB9000016841F400010160006800F400000590A4
:10CBA0000598FFE7FFE7FFE710B080BD80B584B0D0
:10CBB00002900298002804D1FFE701208DF80F00B1
:10CBC00039E0029800684CF6CC4101600298006898
:10CBD00045F255510160029801684068486002982A
:10CBE000016880688860FFF779F90190FFE7029893
:10CBF0000068C0688007002814D0FFE7FFF76EF9CF
:10CC00000199401A32280CD3FFE702980068C068E7
:10CC10008007002804D0FFE703208DF80F000AE00A
:10CC2000FFE7E4E7029800684AF6AA2101600020C5
:10CC30008DF80F00FFE79DF80F0004B080BD0000E5
:10CC400081B00090009800684AF6AA210160002097
:10CC500001B0704740F28C70C2F20000007842F2DE
:10CC60006831C2F200010A68104408607047000091
:10CC700080B582B043F60040C4F20200016841F47E
:10CC800000710160016841F480610160016841F454
:10CC900080710160032000F0A1F80F2000F006F879
:10CCA000019000F03DF8002002B080BD80B582B058
:10CCB000009040F28070C2F20000006840F28C7177
:10CCC000C2F2000109784FF47A72B2FBF1F1B0FBC5
:10CCD000F1F001F005FF002804D0FFE701208DF8F6
:10CCE000070018E000980F280DD8FFE700994FF0D3
:10CCF000FF30002200F052F8009840F29071C2F22A
:10CD00000001086003E001208DF8070003E0002027
:10CD10008DF80700FFE79DF8070002B080BD000016
:10CD200082B0FFE70020019043F64400C4F2020005
:10CD3000016841F480410160006800F48040019086
:10CD40000198FFE7FFE70020009043F64000C4F29F
:10CD50000200016841F080510160006800F08050DD
:10CD600000900098FFE702B07047000080B582B0E5
:10CD700001468DF807009DF90700009107F088FC37
:10CD800002B080BD80B582B001468DF807009DF9E4
:10CD90000700009107F0B4FC02B080BD80B588B0F8
:10CDA00003468DF81F00069105920020049003931E
:10CDB00007F0C8FC04909DF91F000499069A059B92
:10CDC0000290084611461A4604F0FAFB02990190B7
:10CDD0000846019907F0E0FC08B080BD80B582B03C
:10CDE0000190019807F0FAFC02B080BD07F014FD35
:10CDF00080B586B0049000200390029004980078DB
:10CE0000C007002806D1FFE70498007840070028F3
:10CE10004ED5FFE76820C4F2472000210160FFF7EC
:10CE20005DF80390FFE743F60000C4F202000068DB
:10CE300000F000600021B1EBD06F0CD0FFE7FFF7EE
:10CE40004DF80399401A032804D3FFE703208DF817
:10CE50001700E7E0E7E7049841688068890141EA44
:10CE6000007043F68401C4F2020108606820C4F235
:10CE7000472001210160FFF731F80390FFE743F6F7
:10CE80000000C4F20200006800F000600021B1EB75
:10CE9000D06F0CD1FFE7FFF721F80399401A032860
:10CEA00004D3FFE703208DF81700BBE0E7E7FFE7B7
:10CEB000049800788007002840F1B080FFE7FFE782
:10CEC0000020019043F64000C4F20200016841F0E6
:10CED00080510160006800F0805001900198FFE7E8
:10CEE00047F20000C4F20000016841F48071016063
:10CEF000FEF7F4FF0390FFE747F20000C4F20000E2
:10CF00000068C00500280CD4FFE7FEF7E7FF03998F
:10CF1000401A032804D3FFE703208DF8170081E0AF
:10CF2000EAE743F67000C4F20200006800F44070C3
:10CF30000290029800283FD0FFE702980499C96840
:10CF400001F44071884237D0FFE743F67000C4F225
:10CF50000200016821F44071029140F64061C4F280
:10CF6000472101220A6000220A60029901600068DC
:10CF7000C00700281FD0FFE7FEF7B0FF0390FFE7D0
:10CF800043F67000C4F20200006800F002000021C5
:10CF9000B1EB500F0ED1FFE7FEF7A0FF0399401A47
:10CFA00041F28931884204D3FFE703208DF817004E
:10CFB00038E0E5E7FFE7FFE7FFE70498C06800F423
:10CFC0004070B0F5407F12D1FFE743F60800C4F28D
:10CFD0000200016821F4F811049AD2684FF6FF4369
:10CFE000C0F6FF731A4011430A46016009E043F698
:10CFF0000800C4F20200016821F4F8110A46016039
:10D00000FFE70498C0686FF31F3043F67001C4F265
:10D0100002010A6810430860FFE7FFE700208DF86F
:10D020001700FFE79DF8170006B080BD70470000AD
:10D0300080B584B0029001910298002804D1FFE7E6
:10D0400001208DF80F0021E1019843F60041C4F260
:10D050000201096801F00701884212D9FFE701982F
:10D0600043F60041C4F202010870086800F00700AE
:10D070000199884204D0FFE701208DF80F0005E1F7
:10D08000FFE702980078800700282AD5FFE702987A
:10D0900000784007002809D5FFE743F60800C4F2EE
:10D0A0000200016841F4E0510160FFE70298007856
:10D0B0000007002809D5FFE743F60800C4F2020084
:10D0C000016841F460410160FFE743F60800C4F2E3
:10D0D0000200016821F0F001029A92681143016098
:10D0E000FFE702980078C00700286ED0FFE702989B
:10D0F0004068012811D1FFE743F60000C4F20200A6
:10D10000006800F400300021B1EB504F04D1FFE77C
:10D1100001208DF80F00B9E02CE002984068022849
:10D1200005D0FFE702984068032811D1FFE743F6D6
:10D130000000C4F20200006800F000700021B1EBB2
:10D14000506F04D1FFE701208DF80F009EE010E042
:10D1500043F60000C4F20200006800F00200002163
:10D16000B1EB500F04D1FFE701208DF80F008DE0E7
:10D17000FFE7FFE743F60800C4F20200016821F070
:10D180000301029A526811430160FEF7A7FE009066
:10D19000FFE743F60800C4F20200006800F00C004C
:10D1A00002994968B0EB810F0ED0FFE7FEF796FEBB
:10D1B0000099401A41F28931884204D3FFE70320E5
:10D1C0008DF80F0062E0E4E7FFE7019843F60041C5
:10D1D000C4F20201096801F00701884212D2FFE798
:10D1E000019843F60041C4F202010870086800F09B
:10D1F00007000199884204D0FFE701208DF80F0055
:10D2000044E0FFE702980078400700280CD5FFE7CC
:10D2100043F60800C4F20200016821F4E051029ACA
:10D22000D26811430160FFE70298007800070028E8
:10D230000DD5FFE743F60800C4F20200016821F4AF
:10D240006041029A126941EAC2010160FFE700F001
:10D2500051F843F60801C4F202010968C9B209098C
:10D260004AF2AC22C0F60102515CC84040F2807123
:10D27000C2F20001086040F29070C2F20000006843
:10D28000FFF714FD00218DF80F10FFE79DF80F0048
:10D2900004B080BD4C20C4F24720012101607047DA
:10D2A00040F28070C2F200000068704780B5FFF75E
:10D2B000F7FF43F60801C4F202010968C1F38221B5
:10D2C0004AF2BC22C0F60102515CC84080BD000099
:10D2D00080B5FFF7E5FF43F60801C4F202010968D3
:10D2E00089B2490B4AF2BC22C0F60102515CC84027
:10D2F00080BD000080B586B00020059004900390AA
:10D30000029043F60800C4F20200006800F00C002E
:10D3100001460028019108D0FFE7019804280AD0AF
:10D32000FFE7019808280CD04FE042F20040C0F21D
:10D33000F40002904FE041F20020C0F27A00029027
:10D3400049E043F60400C4F20200016801F03F0125
:10D35000059100684002002813D5FFE743F604005A
:10D36000C4F202000068C0F3881041F20021C0F24C
:10D370007A01A0FB0101059A0023FBF749F804900C
:10D3800012E043F60400C4F202000068C0F3881003
:10D3900042F20041C0F2F401A0FB0101059A002312
:10D3A000FBF736F80490FFE743F60400C4F20200EE
:10D3B000006800F44030022101EBD0300390049863
:10D3C0000399B0FBF1F0029005E042F20040C0F298
:10D3D000F4000290FFE7029806B080BD80B543F6E6
:10D3E0000C00C4F2020000680006002809D5FFE71F
:10D3F000FFF71CFE43F60E00C4F20200802101700C
:10D40000FFE780BD80B586B004900498002804D161
:10D41000FFE701208DF8170055E304980078C00756
:10D42000002800F0A780FFE743F60800C4F20200DE
:10D43000006800F00C00042813D0FFE743F6080052
:10D44000C4F20200006800F00C0008281FD1FFE7BA
:10D4500043F60400C4F2020000684002002816D51A
:10D46000FFE743F60000C4F20200006800F4003059
:10D470000021B1EB504F09D0FFE704984068002825
:10D4800004D1FFE701208DF817001CE371E0FFE7EE
:10D4900004984068B0F5803F09D1FFE743F60000EB
:10D4A000C4F20200016841F48031016020E0049878
:10D4B0004068B0F5A02F0DD1FFE743F60000C4F29D
:10D4C0000200016841F480210160016841F480316B
:10D4D00001600CE043F60000C4F20200016821F490
:10D4E00080310160016821F480210160FFE7FFE7DE
:10D4F000FFE70498406800281DD0FFE7FEF7EEFC28
:10D500000390FFE743F60000C4F20200006800F455
:10D5100000300021B1EB504F0CD1FFE7FEF7DEFCED
:10D520000399401A652804D3FFE703208DF81700FC
:10D53000C9E2E7E71CE0FEF7D1FC0390FFE743F602
:10D540000000C4F20200006800F400300021B1EBDA
:10D55000504F0CD0FFE7FEF7C1FC0399401A652835
:10D5600004D3FFE703208DF81700ACE2E7E7FFE7FD
:10D57000FFE7FFE7049800788007002840F19780D4
:10D58000FFE743F60800C4F20200006810F00C0F39
:10D5900013D0FFE743F60800C4F20200006800F071
:10D5A0000C0008282CD1FFE743F60400C4F2020067
:10D5B00000684002002823D4FFE743F60000C4F2CD
:10D5C0000200006800F002000021B1EB500F09D00A
:10D5D000FFE70498C068012804D0FFE701208DF818
:10D5E000170070E243F60000C4F20200016821F067
:10D5F000F801049A126941EAC2010160FFE755E0AF
:10D600000498C06800282ED0FFE70020C4F247200D
:10D6100001210160FEF762FC0390FFE743F6000082
:10D62000C4F20200006800F002000021B1EB500FCC
:10D630000CD1FFE7FEF752FC0399401A032804D3EC
:10D64000FFE703208DF817003DE2E7E743F600000F
:10D65000C4F20200016821F0F801049A126941EA5B
:10D66000C201016021E00020C4F2472000210160D6
:10D67000FEF734FC0390FFE743F60000C4F202001B
:10D68000006800F002000021B1EB500F0CD0FFE762
:10D69000FEF724FC0399401A032804D3FFE7032074
:10D6A0008DF817000FE2E7E7FFE7FFE7FFE70498D1
:10D6B0000078000700284CD5FFE70498406900284F
:10D6C00023D0FFE740F68060C4F2472001210160CB
:10D6D000FEF704FC0390FFE743F67400C4F2020077
:10D6E000006800F002000021B1EB500F0CD1FFE701
:10D6F000FEF7F4FB0399401A032804D3FFE7032045
:10D700008DF81700DFE1E7E722E040F68060C4F221
:10D71000472000210160FEF7E1FB0390FFE743F69D
:10D720007400C4F20200006800F002000021B1EBB6
:10D73000500F0CD0FFE7FEF7D1FB0399401A0328E6
:10D7400004D3FFE703208DF81700BCE1E7E7FFE70C
:10D75000FFE7049800784007002840F1CF80FFE7FA
:10D7600000208DF8070043F64000C4F20200006874
:10D77000C000002815D4FFE7FFE70020009043F623
:10D780004000C4F20200016841F08051016000686D
:10D7900000F0805000900098FFE701208DF807000E
:10D7A000FFE747F20000C4F200000068C00500284F
:10D7B00022D4FFE747F20000C4F20000016841F400
:10D7C00080710160FEF78AFB0390FFE747F20000DB
:10D7D000C4F200000068C00500280CD4FFE7FEF783
:10D7E0007DFB0399401A032804D3FFE703208DF83B
:10D7F000170068E1EAE7FFE7FFE70498806801287F
:10D8000009D1FFE743F67000C4F20200016841F05D
:10D81000010101601FE00498806805280DD1FFE731
:10D8200043F67000C4F20200016841F00401016097
:10D83000016841F0010101600CE043F67000C4F2A0
:10D840000200016821F001010160016821F004017A
:10D850000160FFE7FFE7FFE70498806800281FD01A
:10D86000FFE7FEF73BFB0390FFE743F67000C4F2CF
:10D870000200006800F002000021B1EB500F0ED151
:10D88000FFE7FEF72BFB0399401A41F289318842EA
:10D8900004D3FFE703208DF8170014E1E5E71EE04D
:10D8A000FEF71CFB0390FFE743F67000C4F2020092
:10D8B000006800F002000021B1EB500F0ED0FFE72E
:10D8C000FEF70CFB0399401A41F28931884204D3D8
:10D8D000FFE703208DF81700F5E0E5E7FFE79DF887
:10D8E0000700012809D1FFE743F64000C4F2020017
:10D8F000016821F080510160FFE7FFE7049880692B
:10D90000002800F0DC80FFE743F60800C4F20200C4
:10D91000006800F00C00082800F08580FFE70498FC
:10D92000806902285CD1FFE76020C4F24720002113
:10D930000160FEF7D3FA0390FFE743F60000C4F25C
:10D940000200006800F000700021B1EB506F0CD0B5
:10D95000FFE7FEF7C3FA0399401A032804D3FFE751
:10D9600003208DF81700AEE0E7E70498C169026A6A
:10D97000436AD0F828C0114341EA83114FEACC3200
:10D980004FF6FF739A43A2F580321143C06A41EA11
:10D99000006043F60401C4F2020108606020C4F292
:10D9A000472001210160FEF799FA0390FFE743F653
:10D9B0000000C4F20200006800F000700021B1EB2A
:10D9C000506F0CD1FFE7FEF789FA0399401A03283C
:10D9D00004D3FFE703208DF8170074E0E7E721E0A8
:10D9E0006020C4F2472000210160FEF777FA03901F
:10D9F000FFE743F60000C4F20200006800F0007088
:10DA00000021B1EB506F0CD0FFE7FEF767FA0399E6
:10DA1000401A032804D3FFE703208DF8170052E0D3
:10DA2000E7E7FFE74AE004988069012804D1FFE7AF
:10DA300001208DF8170046E043F60400C4F202000E
:10DA40000068029004988069012831D0FFE70298AD
:10DA500000F480000499C969884229D1FFE702983F
:10DA600000F03F000499096A884221D1FFE702983B
:10DA700047F6C07108400499496AB0EB811F17D17D
:10DA8000FFE7029800F440300499896AC9034FF611
:10DA9000FF729143A1F58031884209D1FFE70298D6
:10DAA00000F070600499C96AB0EB016F04D0FFE721
:10DAB00001208DF8170006E0FFE7FFE7FFE70020F1
:10DAC0008DF81700FFE79DF8170006B080BD000035
:10DAD00083B00290019100200090029800685030BD
